:020000040800F2
:100000000050002065080008E5070008EB0700081D
:10001000F1070008F7070008FD07000800000000CE
:1000200000000000000000000000000003080008BD
:100030000F080008000000001B080008270800083F
:10004000AD080008AD080008AD080008AD080008BC
:10005000AD080008AD080008AD080008AD080008AC
:10006000AD080008AD080008AD080008AD0800089C
:10007000AD080008AD080008AD080008AD0800088C
:10008000AD080008AD08000835080008AD080008F4
:10009000AD080008AD080008AD080008AD0800086C
:1000A000AD080008AD080008AD080008AD0800085C
:1000B000AD080008AD080008AD080008AD0800084C
:1000C000AD080008AD080008AD080008AD0800083C
:1000D000AD080008AD080008AD080008AD0800082C
:1000E00049080008AD080008AD080008000000003D
:1000F0000000000000000000000000000000000000
:0C01000000000000000000005FF808F1A3
:10010C0010B5054C237833B9044B13B10448AFF345
:10011C0000800123237010BD0C00002000000000A3
:10012C00F029000808B5034B1BB103490348AFF392
:10013C00008008BD0000000010000020F02900081D
:10014C0080B586B002AF0346FB71FB7923F00F0339
:10015C00FB73FB791B01BB73FB7B43F00C03DBB222
:10016C003B72FB7B43F00803DBB27B72BB7B43F03F
:10017C000C03DBB2BB72BB7B43F00803DBB2FB723C
:10018C0007F108026423009304234221034801F081
:10019C0001FB00BF1037BD4680BD00BF58000020DA
:1001AC0080B586B002AF0346FB71FB7923F00F03D9
:1001BC00FB73FB791B01BB73FB7B43F00D03DBB2C1
:1001CC003B72FB7B43F00903DBB27B72BB7B43F0DE
:1001DC000D03DBB2BB72BB7B43F00903DBB2FB72DA
:1001EC0007F108026423009304234221034801F021
:1001FC00D1FA00BF1037BD4680BD00BF58000020AB
:10020C0080B500AF3320FFF79BFF3220FFF798FF3C
:10021C00322000F0A9FB2820FFF792FF322000F0DB
:10022C00A3FB0120FFF78CFF322000F09DFB062082
:10023C00FFF786FF322000F097FB0C20FFF780FFC2
:10024C00322000F091FB0220FFF77AFF322000F001
:10025C008BFB8020FFF774FF00BF80BD80B582B0A0
:10026C0000AF786006E07B685A1C7A601B781846F1
:10027C00FFF796FF7B681B78002BF4D100BF00BF03
:10028C000837BD4680BD80B584B000AF786039605A
:10029C007B68012B08D17B68DAB23B68DBB2134474
:1002AC00DBB27F33FB7308E03B68DBB24033DBB27D
:1002BC005BB263F07F035BB2FB73FB7B1846FFF70B
:1002CC003FFF00BF1037BD4680BD80B483B000AF88
:1002DC00786000BF0C37BD4680BC704780B500AF5E
:1002EC0000F0E0FA00F014F800F0FEF800F0D2F89C
:1002FC0000F0A2F800F062F8FFF782FF0021012065
:10030C00FFF7C1FF0148FFF7A9FFFEE7082A000825
:10031C0080B594B000AF07F12803282200211846BD
:10032C0002F058FB07F1140300221A605A609A601D
:10033C00DA601A613B1D00221A605A609A60DA601A
:10034C000223BB620123BB631023FB6302237B6488
:10035C000023BB640023FB6407F12803184601F05B
:10036C0071FD0346002B01D000F02CF90F237B61AB
:10037C000223BB610023FB614FF480633B620023CB
:10038C007B6207F114030021184601F0DDFF0346E0
:10039C00002B01D000F016F902237B600023FB60D8
:1003AC003B1D184602F05EF90346002B01D000F00D
:1003BC0009F900BF5037BD4680BD000080B584B040
:1003CC0000AF3B1D00221A605A609A60184B194A04
:1003DC001A60174B00229A60154B01221A73144BAA
:1003EC0000221A75124B4FF46022DA61104B002276
:1003FC005A600F4B01221A610D4800F0D9FA0346DE
:10040C00002B01D000F0DEF800237B600123BB60E1
:10041C000023FB603B1D1946054800F069FC0346B0
:10042C00002B01D000F0CEF800BF1037BD4680BDC8
:10043C00280000200024014080B500AF124B134A65
:10044C001A60114B124A5A600F4B00229A600E4BE5
:10045C000022DA600C4B4FF480421A610A4B0022E6
:10046C005A61094B00229A61074B0022DA61064B54
:10047C0000221A62044801F049F80346002B01D00F
:10048C0000F0A0F800BF80BD5800002000540040D0
:10049C00A086010080B500AF114B124A1A60104BB8
:1004AC004FF4E1325A600E4B00229A600C4B002242
:1004BC00DA600B4B00221A61094B0C225A61084B73
:1004CC0000229A61064B0022DA61054802F080F99D
:1004DC000346002B01D000F075F800BF80BD00BFB3
:1004EC00AC0000200044004080B588B000AF07F19C
:1004FC00100300221A605A609A60DA602D4B9B69D7
:10050C002C4A43F0100393612A4B9B6903F01003B0
:10051C00FB60FB68274B9B69264A43F020039361E1
:10052C00244B9B6903F02003BB60BB68214B9B6988
:10053C00204A43F0040393611E4B9B6903F00403B0
:10054C007B607B681B4B9B691A4A43F008039361E1
:10055C00184B9B6903F008033B603B680022202189
:10056C00154800F099FF4FF400533B61134B7B612E
:10057C000023BB6107F110031946114800F008FE77
:10058C0020233B6101237B610023BB610223FB61C0
:10059C0007F110031946084800F0FAFD002200216B
:1005AC00282000F0BEFD282000F0D7FD00BF20372A
:1005BC00BD4680BD00100240000801400000111033
:1005CC000010014080B400AF72B600BFFEE700001F
:1005DC0080B485B000AF154B9B69144A43F00103FE
:1005EC009361124B9B6903F00103BB60BB680F4B1B
:1005FC00DB690E4A43F08053D3610C4BDB6903F08B
:10060C0080537B607B680A4B5B68FB60FB6823F064
:10061C00E063FB60FB6843F00073FB60044AFB681B
:10062C00536000BF1437BD4680BC704700100240B9
:10063C000000014080B588B000AF786007F110036E
:10064C0000221A605A609A60DA607B681B68184A4C
:10065C00934229D1174B9B69164A43F4007393615B
:10066C00144B9B6903F40073FB60FB68114B9B6993
:10067C00104A43F0040393610E4B9B6903F004038F
:10068C00BB60BB6801233B6103237B6107F1100353
:10069C001946094800F07CFD00220021122000F0D0
:1006AC0040FD122000F059FD00BF2037BD4680BD33
:1006BC0000240140001002400008014080B58AB0BF
:1006CC0000AF786007F1140300221A605A609A6038
:1006DC00DA607B681B681D4A934232D11C4B9B69C4
:1006EC001B4A43F008039361194B9B6903F0080301
:1006FC003B613B694FF440737B611223BB61032365
:10070C003B6207F114031946124800F041FD124BED
:10071C005B687B627B6A43F0E0637B627B6A43F0DD
:10072C0002037B620C4A7B6A5360094BDB69084A03
:10073C0043F40013D361064BDB6903F40013FB6035
:10074C00FB6800BF2837BD4680BD00BF0054004089
:10075C0000100240000C01400000014080B588B040
:10076C0000AF786007F1100300221A605A609A609B
:10077C00DA607B681B68154A934223D1144BDB6902
:10078C00134A43F40033D361114BDB6903F4003398
:10079C00FB60FB680E4B9B690D4A43F004039361AD
:1007AC000B4B9B6903F00403BB60BB680C233B61E0
:1007BC0002237B610223FB6107F1100319460548F4
:1007CC0000F0E6FC00BF2037BD4680BD0044004071
:1007DC00001002400008014080B400AFFEE780B476
:1007EC0000AFFEE780B400AFFEE780B400AFFEE7D9
:1007FC0080B400AFFEE780B400AF00BFBD4680BC44
:10080C00704780B400AF00BFBD4680BC704780B459
:10081C0000AF00BFBD4680BC704780B500AF00F094
:10082C0087F800BF80BD000080B500AF024800F023
:10083C0097F900BF80BD00BF2800002080B500AF35
:10084C004FF4005000F040FE00BF80BD80B400AFFC
:10085C0000BFBD4680BC7047FFF7F8FF0B480C4942
:10086C000C4A002302E0D458C4500433C4188C4200
:10087C00F9D3094A094C002301E013600432A24267
:10088C00FBD302F083F8FFF729FD7047000000202E
:10089C000C000020442A00080C000020F800002066
:1008AC00FEE7000080B500AF084B1B68074A43F019
:1008BC0010031360032000F029FC002000F008F85E
:1008CC00FFF786FE0023184680BD00BF00200240C3
:1008DC0080B582B000AF7860124B1A68124B1B784F
:1008EC0019464FF47A73B3FBF1F3B2FBF3F31846EA
:1008FC0000F041FC0346002B01D001230EE07B6885
:10090C000F2B0AD8002279684FF0FF3000F009FC59
:10091C00064A7B681360002300E001231846083761
:10092C00BD4680BD0000002008000020040000200F
:10093C0080B400AF054B1B781A46054B1B6813445B
:10094C00034A136000BFBD4680BC704708000020FE
:10095C00F400002080B400AF024B1B681846BD4663
:10096C0080BC7047F400002080B584B000AF786084
:10097C00FFF7F0FFB8607B68FB60FB68B3F1FF3FEB
:10098C0005D00A4B1B781A46FB681344FB6000BF6A
:10099C00FFF7E0FF0246BB68D31AFA689A42F7D811
:1009AC0000BF00BF1037BD4680BD00BF080000204F
:1009BC0080B586B000AF78600023FB7500233B61E7
:1009CC000023BB600023FB607B68002B01D101235B
:1009DC00BEE07B689B68002B7B689B6A002B09D16F
:1009EC007B680022DA627B68002283F82420786816
:1009FC00FFF720FE786800F073FA0346FB757B68FE
:100A0C009B6A03F01003002B40F09980FB7D002BB8
:100A1C0040F095807B689B6A23F4885323F0020393
:100A2C0043F002027B689A627B685A687B68DB69D8
:100A3C001A437B681B7B5B001343BA681343BB6090
:100A4C007B689B68B3F5807F03D07B689B68012B28
:100A5C0002D14FF4807300E000233A6913433B61E9
:100A6C007B681B7D012B19D17B681B7B002B09D16B
:100A7C007B689B69013B5A033B69134343F4006356
:100A8C003B610BE07B689B6A43F020027B689A62B7
:100A9C007B68DB6A43F001027B68DA627B681B6867
:100AAC005B6823F469417B681B683A690A435A60A6
:100ABC007B681B689A68284B13407A681268B9687F
:100ACC000B4393607B689B68B3F5807F03D07B6896
:100ADC009B68012B04D17B681B69013B1B05FB60E8
:100AEC007B681B68DB6A23F470017B681B68FA68FF
:100AFC000A43DA627B681B689A68184B1340BA6821
:100B0C009A420BD17B680022DA627B689B6A23F0E5
:100B1C00030343F001027B689A6218E07B689B6ACE
:100B2C0023F0120343F010027B689A627B68DB6A45
:100B3C0043F001027B68DA620123FB7507E07B68F6
:100B4C009B6A43F010027B689A620123FB75FB7D64
:100B5C0018461837BD4680BDFDF7E1FFFE0E1FFF9E
:100B6C0080B584B000AF78607B681B681B68FB6045
:100B7C007B681B685B68BB60BB6803F02003002BC1
:100B8C003ED0FB6803F00203002B39D07B689B6AD4
:100B9C0003F01003002B05D17B689B6A43F40072B1
:100BAC007B689A627B681B689B6803F46023B3F5CF
:100BBC00602F1DD17B681B7B002B19D17B681B68B8
:100BCC005A687B681B6822F020025A607B689B6A1B
:100BDC0023F480727B689A627B689B6A03F480536F
:100BEC00002B05D17B689B6A43F001027B689A62FB
:100BFC007868FFF76AFB7B681B686FF012021A605B
:100C0C00BB6803F08003002B4DD0FB6803F004039A
:100C1C00002B48D07B689B6A03F01003002B05D196
:100C2C007B689B6A43F400527B689A627B681B6802
:100C3C009B6803F4E043B3F5E04F12D07B681B686C
:100C4C005B6803F48063002B25D17B681B689B6871
:100C5C0003F46023B3F5602F1DD17B681B7B002B45
:100C6C0019D17B681B685A687B681B6822F080026C
:100C7C005A607B689B6A23F480527B689A627B681B
:100C8C009B6A03F48073002B05D17B689B6A43F04D
:100C9C0001027B689A62786800F063F97B681B68D4
:100CAC006FF00C021A60BB6803F04003002B12D0EB
:100CBC00FB6803F00103002B0DD07B689B6A43F4A7
:100CCC0080327B689A62786800F009F87B681B6850
:100CDC006FF001021A6000BF1037BD4680BD80B4B2
:100CEC0083B000AF786000BF0C37BD4680BC704746
:100CFC0080B485B000AF786039600023FB730023AB
:100D0C00BB607B6893F82430012B01D10223DCE01B
:100D1C007B68012283F824203B685B68062B1CD877
:100D2C007B681B68596B3B685A6813469B001344DD
:100D3C00053B1F2202FA03F3DB4319403B6818689A
:100D4C003B685A6813469B001344053B00FA03F2B8
:100D5C007B681B680A435A633CE03B685B680C2B5E
:100D6C001CD87B681B68196B3B685A6813469B0040
:100D7C001344233B1F2202FA03F3DB4319403B6865
:100D8C0018683B685A6813469B001344233B00FACF
:100D9C0003F27B681B680A431A631BE07B681B68C1
:100DAC00D96A3B685A6813469B001344413B1F2287
:100DBC0002FA03F3DB4319403B6818683B685A6836
:100DCC0013469B001344413B00FA03F27B681B68FB
:100DDC000A43DA623B681B68092B1CD97B681B68C9
:100DEC00D9683B681A6813465B0013441E3B072204
:100DFC0002FA03F3DB4319403B6898683B681A68B6
:100E0C0013465B0013441E3B00FA03F27B681B681D
:100E1C000A43DA6019E07B681B6819693B681A6839
:100E2C0013465B001344072202FA03F3DB43194019
:100E3C003B6898683B681A6813465B00134400FAD9
:100E4C0003F27B681B680A431A613B681B68102B12
:100E5C0003D03B681B68112B32D17B681B681D4A81
:100E6C00934225D17B681B689B6803F40003002B1D
:100E7C0026D17B681B689A687B681B6842F4000269
:100E8C009A603B681B68102B1AD1134B1B68134AD2
:100E9C00A2FB03239A0C13469B0013445B00BB601C
:100EAC0002E0BB68013BBB60BB68002BF9D107E0DB
:100EBC007B689B6A43F020027B689A620123FB7378
:100ECC007B68002283F82420FB7B18461437BD4630
:100EDC0080BC7047002401400000002083DE1B43CF
:100EEC0080B584B000AF78600023FB607B681B6822
:100EFC009B6803F00103012B2ED17B681B689A6859
:100F0C007B681B6822F001029A60FFF723FDF860F2
:100F1C001BE0FFF71FFD0246FB68D31A022B14D906
:100F2C007B681B689B6803F00103012B0DD17B6868
:100F3C009B6A43F010027B689A627B68DB6A43F021
:100F4C0001027B68DA62012307E07B681B689B68FF
:100F5C0003F00103012BDCD0002318461037BD46EB
:100F6C0080BD80B483B000AF786000BF0C37BD4645
:100F7C0080BC704780B485B000AF78607B6803F0AC
:100F8C000703FB600C4BDB68BB60BA684FF6FF03D2
:100F9C001340BB60FB681A02BB68134343F0BF638A
:100FAC0043F40033BB60044ABB68D36000BF143702
:100FBC00BD4680BC704700BF00ED00E080B400AFC0
:100FCC00044BDB681B0A03F007031846BD4680BCC4
:100FDC00704700BF00ED00E080B483B000AF034663
:100FEC00FB7197F90730002B0BDBFB7903F01F0229
:100FFC00064997F907305B09012000FA02F241F823
:10100C00232000BF0C37BD4680BC704700E100E0D8
:10101C0080B483B000AF03463960FB7197F9073099
:10102C00002B0ADB3B68DAB20C4997F90730120146
:10103C00D2B20B4483F800230AE03B68DAB20849C9
:10104C00FB7903F00F03043B1201D2B20B441A7666
:10105C0000BF0C37BD4680BC704700BF00E100E00C
:10106C0000ED00E080B489B000AFF860B9607A6040
:10107C00FB6803F00703FB61FB69C3F10703042B57
:10108C0028BF0423BB61FB690433062B02D9FB691F
:10109C00033B00E000237B614FF0FF32BB6902FA97
:1010AC0003F3DA43BB681A407B699A404FF0FF3177
:1010BC007B6901FA03F3D9437B680B401343184651
:1010CC002437BD4680BC704780B582B000AF7860D5
:1010DC007B68013BB3F1807F01D301230FE00A4A07
:1010EC007B68013B53600F214FF0FF30FFF790FFFF
:1010FC00054B00229A60044B07221A600023184605
:10110C000837BD4680BD00BF10E000E080B582B05E
:10111C0000AF78607868FFF72DFF00BF0837BD4639
:10112C0080BD80B586B000AF0346B9607A60FB73B2
:10113C0000237B61FFF742FF78617A68B9687869B0
:10114C00FFF790FF024697F90F3011461846FFF74C
:10115C005FFF00BF1837BD4680BD80B582B000AFC1
:10116C000346FB7197F907301846FFF735FF00BFB0
:10117C000837BD4680BD80B582B000AF7860786816
:10118C00FFF7A2FF034618460837BD4680BD000096
:10119C0080B48BB000AF7860396000237B62002391
:1011AC003B6269E101227B6A02FA03F3FB613B6853
:1011BC001B68FA691340BB61BA69FB699A4240F03B
:1011CC0058813B685B689A4A93425ED0984A934236
:1011DC0075D8984A934258D0964A93426FD8964AFB
:1011EC00934252D0944A934269D8944A93424CD039
:1011FC00924A934263D8924A934246D0904A934281
:10120C005DD8122B2AD8122B59D801A252F823F0F0
:10121C00971200087112000883120008C51200080A
:10122C00CB120008CB120008CB120008CB1200081E
:10123C00CB120008CB120008CB120008CB1200080E
:10124C00CB120008CB120008CB120008CB120008FE
:10125C00CB120008791200088D120008794A9342CB
:10126C0013D02CE03B68DB683B6229E03B68DB6811
:10127C0004333B6224E03B68DB6808333B621FE0CD
:10128C003B68DB680C333B621AE03B689B68002BC5
:10129C0002D104233B6213E03B689B68012B05D110
:1012AC0008233B627B68FA691A6109E008233B62F8
:1012BC007B68FA695A6103E000233B6200E000BFDF
:1012CC00BB69FF2B01D87B6801E07B6804337B6131
:1012DC00BB69FF2B02D87B6A9B0002E07B6A083B50
:1012EC009B003B617B691A680F213B6901FA03F390
:1012FC00DB431A40396A3B6901FA03F31A437B69F1
:10130C001A603B685B6803F08053002B00F0B180DF
:10131C004D4B9B694C4A43F0010393614A4B9B69CB
:10132C0003F00103BB60BB68484A7B6A9B0802332D
:10133C0052F82330FB607B6A03F003039B000F22FF
:10134C0002FA03F3DB43FA681340FB607B68404A04
:10135C00934213D07B683F4A93420DD07B683E4A40
:10136C00934207D07B683D4A934201D1032306E0A8
:10137C00042304E0022302E0012300E000237A6A44
:10138C0002F0030292009340FA681343FB602F496A
:10139C007B6A9B080233FA6841F823203B685B6840
:1013AC0003F48013002B06D02D4B9A682C49BB6993
:1013BC0013438B6006E02A4B9A68BB69DB432849D0
:1013CC0013408B603B685B6803F40013002B06D062
:1013DC00234BDA682249BB691343CB6006E0204BF0
:1013EC00DA68BB69DB431E491340CB603B685B6822
:1013FC0003F40033002B06D0194B5A681849BB690B
:10140C0013434B6006E0164B5A68BB69DB43144927
:10141C0013404B603B685B6803F48033002B21D096
:10142C000F4B1A680E49BB6913430B6021E000BFD8
:10143C0000003210000031100000221000002110BA
:10144C0000001210000011100010024000000140BA
:10145C0000080140000C0140001001400014014044
:10146C00000401400B4B1A68BB69DB43094913406C
:10147C000B607B6A01337B623B681A687B6A22FAD9
:10148C0003F3002B7FF48EAE00BF00BF2C37BD469C
:10149C0080BC70470004014080B483B000AF78601A
:1014AC000B467B8013467B707B78002B03D07A88AD
:1014BC007B681A6103E07B881A047B681A6100BFA1
:1014CC000C37BD4680BC704780B582B000AF034678
:1014DC00FB80084B5A69FB881340002B06D0054A49
:1014EC00FB885361FB88184600F006F800BF0837EC
:1014FC00BD4680BD0004014080B483B000AF0346FC
:10150C00FB8000BF0C37BD4680BC704780B584B0F3
:10151C0000AF78607B68002B01D101232BE17B6845
:10152C0093F83D30DBB2002B06D17B68002283F8A8
:10153C003C207868FFF7C2F87B68242283F83D20B2
:10154C007B681B681A687B681B6822F001021A60B2
:10155C007B681B681A687B681B6842F400421A603F
:10156C007B681B681A687B681B6822F400421A604F
:10157C0001F032F8F8607B685B68814A934207D8C7
:10158C00FB68804A934294BF01230023DBB206E040
:10159C00FB687D4A934294BF01230023DBB2002BEE
:1015AC0001D00123E7E0FB68784AA2FB03239B0CE4
:1015BC00BB607B681B685B6823F03F017B681B6822
:1015CC00BA680A435A607B681B681B6A23F03F01A8
:1015DC007B685B686A4A934202D8BB68013309E0B6
:1015EC00BB684FF4967202FB03F3694AA2FB032318
:1015FC009B0901337A6812680B4313627B681B6882
:10160C00DB6923F44F4222F0FF027B685B685C4984
:10161C008B4219D8FB68591E7B685B685B00B1FB79
:10162C00F3F3591C40F6FC730B40002B0AD0FB68FB
:10163C00591E7B685B685B00B1FBF3F30133C3F3AA
:10164C000B0351E004234FE07B689B68002B11D106
:10165C00FB68581E7B6859680B465B000B44B0FB5B
:10166C00F3F30133C3F30B03002B0CBF0123002353
:10167C00DBB212E0FB68581E7B6859680B469B0076
:10168C000B4499000B44B0FBF3F30133C3F30B038E
:10169C00002B0CBF01230023DBB2002B01D0012354
:1016AC0022E07B689B68002B0ED1FB68581E7B6880
:1016BC0059680B465B000B44B0FBF3F30133C3F3E7
:1016CC000B0343F400430FE0FB68581E7B6859681A
:1016DC000B469B000B4499000B44B0FBF3F3013316
:1016EC00C3F30B0343F44043796809681343CB619C
:1016FC007B681B681B6823F0C0017B68DA697B6818
:10170C001B6A1A437B681B680A431A607B681B6858
:10171C009B6823F4034323F0FF037A6811697A680A
:10172C00D26811437A6812680B4393607B681B681C
:10173C00DB6823F0FF017B685A697B689B691A435D
:10174C007B681B680A43DA607B681B681A687B68D5
:10175C001B6842F001021A607B6800221A647B68E5
:10176C00202283F83D207B6800221A637B680022CC
:10177C0083F83E20002318461037BD4680BD00BFBD
:10178C00A08601007F841E00FF083D0083DE1B4302
:10179C00D34D621080B588B002AFF8607A601A46FB
:1017AC000B467B8113463B81FFF7D4F87861FB68CD
:1017BC0093F83D30DBB2202B40F0E0807B69009346
:1017CC00192301227049F86800F064F90346002BD4
:1017DC0001D00223D3E0FB6893F83C30012B01D1FC
:1017EC000223CCE0FB68012283F83C20FB681B68D9
:1017FC001B6803F00103012B07D0FB681B681A68F8
:10180C00FB681B6842F001021A60FB681B681A68CF
:10181C00FB681B6822F400621A60FB68212283F8C3
:10182C003D20FB68102283F83E20FB6800221A64DE
:10183C00FB687A685A62FB683A895A85FB685B8D4B
:10184C009AB2FB681A85FB68504ADA6279897B691F
:10185C003A6AF86800F09CF80346002B01D001238B
:10186C008DE000233B61FB681B685B693B61FB6897
:10187C001B689B693B613B6966E07A69396AF86869
:10188C0000F022FA0346002B0DD0FB681B6C042BD6
:10189C0007D1FB681B681A68FB681B6842F400726E
:1018AC001A6001236BE0FB685B6A1A78FB681B68A3
:1018BC001A61FB685B6A5A1CFB685A62FB685B8D99
:1018CC009BB2013B9AB2FB685A85FB681B8D013BAE
:1018DC009AB2FB681A85FB681B685B6903F004030A
:1018EC00042B1BD1FB681B8D002B17D0FB685B6A8C
:1018FC001A78FB681B681A61FB685B6A5A1CFB68E8
:10190C005A62FB685B8D9BB2013B9AB2FB685A85AD
:10191C00FB681B8D013B9AB2FB681A857A69396AA0
:10192C00F86800F019FA0346002B0DD0FB681B6C0D
:10193C00042B07D1FB681B681A68FB681B6842F410
:10194C0000721A6001231AE0FB681B8D002B94D1E6
:10195C00FB681B681A68FB681B6842F400721A600B
:10196C00FB68202283F83D20FB68002283F83E2090
:10197C00FB68002283F83C20002300E00223184679
:10198C001837BD4680BD00BF020010000000FFFFED
:10199C0080B588B002AFF8607A603B600B467B8103
:1019AC00FB68DB6A7B617B69082B06D07B69012BAA
:1019BC0003D07B6913F5803F08D1FB681B681A685C
:1019CC00FB681B6842F480721A600BE0FB681B6BAF
:1019DC00122B07D1FB681B681A68FB681B6842F462
:1019EC0080721A603B6800937B6800224FF00111F3
:1019FC00F86800F04FF80346002B0DD0FB681B680D
:101A0C001B6803F48073B3F5807F03D1FB684FF43C
:101A1C0000721A64032335E0FB681B69B3F5804F31
:101A2C0008D17B89DBB21A46FB681B6802F0FE0208
:101A3C001A611BE07B89DB11DBB203F00603DBB21E
:101A4C0063F00F03DAB2FB681B681A613B687A68B3
:101A5C000E49F86800F098F80346002B01D00123DA
:101A6C0010E07B89DAB2FB681B681A613B687A6804
:101A7C000749F86800F088F80346002B01D00123D1
:101A8C0000E0002318461837BD4680BD0800010051
:101A9C000200010080B584B000AFF860B9603B6013
:101AAC001346FB7148E03B68B3F1FF3F44D0FEF7AF
:101ABC0051FF0246BB69D31A3A689A4202D33B687B
:101ACC00002B39D1BB681B0CDBB2012B0DD1FB6891
:101ADC001B685B69DA43BB6813409BB2002B0CBFDD
:101AEC0001230023DBB21A460CE0FB681B689B69E0
:101AFC00DA43BB6813409BB2002B0CBF01230023BD
:101B0C00DBB21A46FB799A4216D1FB6800221A63A3
:101B1C00FB68202283F83D20FB68002283F83E20DE
:101B2C00FB681B6C43F02002FB681A64FB68002204
:101B3C0083F83C20012323E0BB681B0CDBB2012B98
:101B4C000DD1FB681B685B69DA43BB6813409BB221
:101B5C00002B0CBF01230023DBB21A460CE0FB6800
:101B6C001B689B69DA43BB6813409BB2002B0CBF0C
:101B7C0001230023DBB21A46FB799A4293D000234F
:101B8C0018461037BD4680BD80B584B000AFF860F4
:101B9C00B9607A603B6071E0FB681B685B6903F4B9
:101BAC008063B3F5806F23D1FB681B681A68FB68F0
:101BBC001B6842F400721A60FB681B686FF4806249
:101BCC005A61FB6800221A63FB68202283F83D20CF
:101BDC00FB68002283F83E20FB681B6C43F0040278
:101BEC00FB681A64FB68002283F83C20012367E041
:101BFC007B68B3F1FF3F41D0FEF7ACFE02463B6879
:101C0C00D31A7A689A4202D37B68002B36D1BB6810
:101C1C001B0CDBB2012B0CD1FB681B685B69DA4334
:101C2C00BB6813409BB2002B14BF01230023DBB213
:101C3C000BE0FB681B689B69DA43BB6813409BB2E3
:101C4C00002B14BF01230023DBB2002B16D0FB6842
:101C5C0000221A63FB68202283F83D20FB680022D7
:101C6C0083F83E20FB681B6C43F02002FB681A646F
:101C7C00FB68002283F83C20012321E0BB681B0C8D
:101C8C00DBB2012B0CD1FB681B685B69DA43BB68C8
:101C9C0013409BB2002B14BF01230023DBB20BE0DB
:101CAC00FB681B689B69DA43BB6813409BB2002B33
:101CBC0014BF01230023DBB2002B7FF46DAF002394
:101CCC0018461037BD4680BD80B584B000AFF860B3
:101CDC00B9607A6034E0F86800F086F80346002BAF
:101CEC0001D0012334E0BB68B3F1FF3F28D0FEF7ED
:101CFC0031FE02467B68D31ABA689A4202D3BB689B
:101D0C00002B1DD1FB681B685B6903F08003802BE3
:101D1C0016D0FB6800221A63FB68202283F83D2052
:101D2C00FB68002283F83E20FB681B6C43F020020A
:101D3C00FB681A64FB68002283F83C20012307E04F
:101D4C00FB681B685B6903F08003802BC3D1002305
:101D5C0018461037BD4680BD80B584B000AFF86022
:101D6C00B9607A6034E0F86800F03EF80346002B66
:101D7C0001D0012334E0BB68B3F1FF3F28D0FEF75C
:101D8C00E9FD02467B68D31ABA689A4202D3BB6853
:101D9C00002B1DD1FB681B685B6903F00403042B4B
:101DAC0016D0FB6800221A63FB68202283F83D20C2
:101DBC00FB68002283F83E20FB681B6C43F020027A
:101DCC00FB681A64FB68002283F83C20012307E0BF
:101DDC00FB681B685B6903F00403042BC3D100236D
:101DEC0018461037BD4680BD80B483B000AF786014
:101DFC007B681B685B6903F48063B3F5806F1BD150
:101E0C007B681B686FF480625A617B6800221A63DE
:101E1C007B68202283F83D207B68002283F83E20DB
:101E2C007B681B6C43F004027B681A647B6800229D
:101E3C0083F83C20012300E0002318460C37BD46F4
:101E4C0080BC704780B586B000AF78607B68002B93
:101E5C0001D1012372E27B681B6803F00103002BA4
:101E6C0000F08780924B5B6803F00C03042B0CD0C2
:101E7C008F4B5B6803F00C03082B12D18C4B5B6807
:101E8C0003F48033B3F5803F0BD1894B1B6803F40B
:101E9C000033002B6CD07B685B68002B68D101236E
:101EAC004CE27B685B68B3F5803F06D1804B1B68C6
:101EBC007F4A43F4803313602EE07B685B68002B11
:101ECC000CD17B4B1B687A4A23F480331360784B1C
:101EDC001B68774A23F4802313601DE07B685B68E2
:101EEC00B3F5A02F0CD1724B1B68714A43F48023BD
:101EFC0013606F4B1B686E4A43F4803313600BE026
:101F0C006B4B1B686A4A23F480331360684B1B6865
:101F1C00674A23F4802313607B685B68002B13D023
:101F2C00FEF718FD386108E0FEF714FD02463B6928
:101F3C00D31A642B01D9032300E25D4B1B6803F415
:101F4C000033002BF0D014E0FEF704FD386108E0FC
:101F5C00FEF700FD02463B69D31A642B01D903231B
:101F6C00ECE1534B1B6803F40033002BF0D100E081
:101F7C0000BF7B681B6803F00203002B63D04C4B43
:101F8C005B6803F00C03002B0BD0494B5B6803F030
:101F9C000C03082B1CD1464B5B6803F48033002BDD
:101FAC0016D1434B1B6803F00203002B05D07B6852
:101FBC001B69012B01D00123C0E13D4B1B6823F0B1
:101FCC00F8027B685B69DB00394913430B603AE02C
:101FDC007B681B69002B20D0364B01221A60FEF760
:101FEC00B9FC386108E0FEF7B5FC02463B69D31A30
:101FFC00022B01D90323A1E12D4B1B6803F0020333
:10200C00002BF0D02A4B1B6823F0F8027B685B692D
:10201C00DB00274913430B6015E0264B00221A60A6
:10202C00FEF798FC386108E0FEF794FC02463B6929
:10203C00D31A022B01D9032380E11D4B1B6803F03B
:10204C000203002BF0D17B681B6803F00803002B04
:10205C003AD07B689B69002B19D0174B01221A6070
:10206C00FEF778FC386108E0FEF774FC02463B6929
:10207C00D31A022B01D9032360E10D4B5B6A03F0E9
:10208C000203002BF0D0012000F0CEFA1CE00A4B2A
:10209C0000221A60FEF75EFC38610FE0FEF75AFC76
:1020AC0002463B69D31A022B08D9032346E100BF31
:1020BC00001002400000424280044242924B5B6A94
:1020CC0003F00203002BE9D17B681B6803F00403C7
:1020DC00002B00F0A6800023FB758B4BDB6903F013
:1020EC008053002B0DD1884BDB69874A43F080531A
:1020FC00D361854BDB6903F08053BB60BB68012364
:10210C00FB75824B1B6803F48073002B18D17F4B3B
:10211C001B687E4A43F480731360FEF71BFC386126
:10212C0008E0FEF717FC02463B69D31A642B01D971
:10213C00032303E1754B1B6803F48073002BF0D071
:10214C007B68DB68012B06D16F4B1B6A6E4A43F030
:10215C00010313622DE07B68DB68002B0CD16A4B0A
:10216C001B6A694A23F001031362674B1B6A664AB8
:10217C0023F0040313621CE07B68DB68052B0CD195
:10218C00614B1B6A604A43F0040313625E4B1B6A8B
:10219C005D4A43F0010313620BE05B4B1B6A5A4A26
:1021AC0023F001031362584B1B6A574A23F00403B4
:1021BC0013627B68DB68002B15D0FEF7CBFB386114
:1021CC000AE0FEF7C7FB02463B69D31A41F288329C
:1021DC00934201D90323B1E04B4B1B6A03F002037A
:1021EC00002BEED014E0FEF7B5FB38610AE0FEF7E9
:1021FC00B1FB02463B69D31A41F28832934201D9B2
:10220C0003239BE0404B1B6A03F00203002BEED12F
:10221C00FB7D012B05D13C4BDB693B4A23F0805302
:10222C00D3617B68DB69002B00F08780364B5B68E1
:10223C0003F00C03082B61D07B68DB69022B46D1C1
:10224C00334B00221A60FEF785FB386108E0FEF77D
:10225C0081FB02463B69D31A022B01D903236DE0A3
:10226C00294B1B6803F00073002BF0D17B681B6AB1
:10227C00B3F5803F08D1244B5B6823F400327B68B4
:10228C009B68214913434B601F4B5B6823F474120A
:10229C007B68196A7B685B6A0B431B4913434B6071
:1022AC001B4B01221A60FEF755FB386108E0FEF764
:1022BC0051FB02463B69D31A022B01D903233DE0A3
:1022CC00114B1B6803F00073002BF0D035E0104B62
:1022DC0000221A60FEF73EFB386108E0FEF73AFB7D
:1022EC0002463B69D31A022B01D9032326E0064B85
:1022FC001B6803F00073002BF0D11EE07B68DB69D8
:10230C00012B07D1012319E000100240007000409E
:10231C00600042420B4B5B68FB60FB6803F480324D
:10232C007B681B6A9A4206D1FB6803F470127B68C7
:10233C005B6A9A4201D0012300E00023184618374B
:10234C00BD4680BD0010024080B584B000AF7860FF
:10235C0039607B68002B01D10123D0E06A4B1B68EC
:10236C0003F007033A689A4210D9674B1B6823F0B5
:10237C00070265493B6813430B60634B1B6803F012
:10238C0007033A689A4201D00123B8E07B681B68C6
:10239C0003F00203002B20D07B681B6803F00403BE
:1023AC00002B05D0594B5B68584A43F4E0635360EB
:1023BC007B681B6803F00803002B05D0534B5B684C
:1023CC00524A43F460535360504B5B6823F0F00265
:1023DC007B689B684D4913434B607B681B6803F01B
:1023EC000103002B40D07B685B68012B07D1474B66
:1023FC001B6803F40033002B15D101237FE07B68AD
:10240C005B68022B07D1414B1B6803F00073002B58
:10241C0009D1012373E03D4B1B6803F00203002B31
:10242C0001D101236BE0394B5B6823F003027B681D
:10243C005B68364913434B60FEF78CFAF8600AE090
:10244C00FEF788FA0246FB68D31A41F288329342AF
:10245C0001D9032353E02D4B5B6803F00C027B681E
:10246C005B689B009A42EBD1274B1B6803F0070378
:10247C003A689A4210D2244B1B6823F00702224977
:10248C003B6813430B60204B1B6803F007033A684F
:10249C009A4201D0012332E07B681B6803F00403ED
:1024AC00002B08D0194B5B6823F4E0627B68DB6877
:1024BC00164913434B607B681B6803F00803002B21
:1024CC0009D0124B5B6823F460527B681B69DB00FC
:1024DC000E4913434B6000F021F802460B4B5B682E
:1024EC001B0903F00F030A49CB5C22FA03F3094AD8
:1024FC001360094B1B681846FEF7EAF900231846CF
:10250C001037BD4680BD00BF0020024000100240C5
:10251C00102A0008000000200400002080B487B0BE
:10252C0000AF0023FB600023BB6000237B61002312
:10253C007B6000233B611E4B5B68FB60FB6803F018
:10254C000C03042B02D0082B03D027E0194B3B6162
:10255C0027E0FB689B0C03F00F03174AD35C7B60EE
:10256C00FB6803F48033002B10D0114B5B685B0CC1
:10257C0003F00103114AD35CBB607B680D4A03FB7B
:10258C0002F2BB68B2FBF3F37B6104E07B680C4A9C
:10259C0002FB03F37B617B693B6102E0054B3B6112
:1025AC0000BF3B6918461C37BD4680BC704700BF56
:1025BC000010024000127A00282A0008382A00086D
:1025CC0000093D0080B400AF024B1B681846BD46A5
:1025DC0080BC70470000002080B500AFFFF7F2FF11
:1025EC000246054B5B681B0A03F007030349CB5CEF
:1025FC0022FA03F3184680BD00100240202A00087E
:10260C0080B500AFFFF7DEFF0246054B5B68DB0AC7
:10261C0003F007030349CB5C22FA03F3184680BD91
:10262C0000100240202A000880B485B000AF78600A
:10263C000A4B1B680A4AA2FB03235B0A7A6802FB5B
:10264C0003F3FB6000BFFB685A1EFA60002BF9D144
:10265C0000BF00BF1437BD4680BC7047000000208F
:10266C00D34D621080B586B000AF786000233B611B
:10267C000023FB607B681B6803F00103002B7DD0FB
:10268C000023FB754F4BDB6903F08053002B0DD1FE
:10269C004C4BDB694B4A43F08053D361494BDB69AC
:1026AC0003F08053BB60BB680123FB75464B1B6872
:1026BC0003F48073002B18D1434B1B68424A43F43C
:1026CC0080731360FEF746F9386108E0FEF742F9B3
:1026DC0002463B69D31A642B01D903236DE03A4BB4
:1026EC001B6803F48073002BF0D0364B1B6A03F489
:1026FC004073FB60FB68002B2ED07B685B6803F497
:10270C004073FA689A4227D02E4B1B6A23F440730D
:10271C00FB602E4B01221A602C4B00221A60294AB6
:10272C00FB681362FB6803F00103002B14D0FEF767
:10273C0011F938610AE0FEF70DF902463B69D31A2C
:10274C0041F28832934201D9032336E01D4B1B6AB8
:10275C0003F00203002BEED01A4B1B6A23F44072D9
:10276C007B685B68174913430B62FB7D012B05D11A
:10277C00144BDB69134A23F08053D3617B681B68CD
:10278C0003F00203002B08D00E4B5B6823F440428D
:10279C007B689B680B4913434B607B681B6803F099
:1027AC001003002B08D0074B5B6823F480027B6876
:1027BC00DB68044913434B60002318461837BD46A9
:1027CC0080BD00BF00100240007000404004424237
:1027DC0080B582B000AF78607B68002B01D10123FB
:1027EC0042E07B6893F84130DBB2002B06D17B686A
:1027FC00002283F840207868FDF7B0FF7B68242224
:10280C0083F841207B681B68DA687B681B6822F4BC
:10281C000052DA60786800F02BF87B681B681A6944
:10282C007B681B6822F490421A617B681B685A69AA
:10283C007B681B6822F02A025A617B681B68DA6885
:10284C007B681B6842F40052DA607B6800225A6491
:10285C007B68202283F841207B68202283F8422069
:10286C007B6800225A63002318460837BD4680BD9A
:10287C0080B584B000AF78607B681B681B6923F45B
:10288C0040517B68DA687B681B680A431A617B6875
:10289C009A687B681B691A437B685B691343BB604E
:1028AC007B681B68DB6823F4B05323F00C037A6855
:1028BC001268B9680B43D3607B681B685B6923F4AF
:1028CC0040717B689A697B681B680A435A617B6814
:1028DC001B682C4A934203D1FFF792FEF86002E08A
:1028EC00FFF77AFEF860FA6813469B0013449A00CF
:1028FC001A447B685B689B00B2FBF3F3224AA2FB91
:10290C0003235B091901FA6813469B0013449A00D0
:10291C001A447B685B689B00B2FBF3F21A4BA3FB77
:10292C0002035B09642000FB03F3D31A1B0132334F
:10293C00154AA2FB03235B0903F0F0031944FA6860
:10294C0013469B0013449A001A447B685B689B00F7
:10295C00B2FBF3F20C4BA3FB02035B09642000FBFC
:10296C0003F3D31A1B013233074AA2FB03235B097F
:10297C0003F00F027B681B680A449A6000BF103793
:10298C00BD4680BD003801401F85EB5170B5002657
:10299C000C4D0D4C641BA410A64209D100F022F87A
:1029AC0000260A4D0A4C641BA410A64205D170BD2A
:1029BC0055F8043B98470136EEE755F8043B984729
:1029CC000136F2E73C2A00083C2A00083C2A0008A1
:1029DC00402A000803460244934200D1704703F892
:1029EC00011BF9E7F8B500BFF8BC08BC9E46704760
:0C29FC00F8B500BFF8BC08BC9E46704750
:102A08006865686500000000000000000000000024
:102A1800010203040607080900000000010203047C
:102A280002030405060708090A0B0C0D0E0F101007
:042A38000102000097
:042A3C00310100085C
:042A40000D0100087C
:0C2A440000127A001000000001000000E9
:040000050800086582
:00000001FF
