:020000040800F2
:10000000005000204D1500084D140008531400083E
:10001000591400085F14000865140008000000006F
:100020000000000000000000000000006B14000849
:100030007714000800000000831400088F140008E3
:1000400095150008951500089515000895150008E8
:1000500095150008951500089515000895150008D8
:1000600095150008951500089515000895150008C8
:1000700095150008951500089515000895150008B8
:1000800095150008951500089D14000895150008A1
:100090009515000895150008951500089515000898
:1000A0009515000895150008951500089515000888
:1000B000B11400089515000895150008951500085D
:1000C0009515000895150008951500089515000868
:1000D0009515000895150008951500089515000858
:1000E000C5140008951500089515000800000000CB
:1000F0000000000000000000000000000000000000
:0C01000000000000000000005FF808F1A3
:10010C0010B5054C237833B9044B13B10448AFF345
:10011C0000800123237010BD9C0000200000000013
:10012C001C48000808B5034B1BB103490348AFF347
:10013C00008008BD00000000A00000201C48000842
:10014C0080B586B002AF0346FB71FB7923F00F0339
:10015C00FB73FB791B01BB73FB7B43F00C03DBB222
:10016C003B72FB7B43F00803DBB27B72BB7B43F03F
:10017C000C03DBB2BB72BB7B43F00803DBB2FB723C
:10018C0007F108026423009304234221034802F080
:10019C00A5F900BF1037BD4680BD00BF8801002007
:1001AC0080B586B002AF0346FB71FB7923F00F03D9
:1001BC00FB73FB791B01BB73FB7B43F00D03DBB2C1
:1001CC003B72FB7B43F00903DBB27B72BB7B43F0DE
:1001DC000D03DBB2BB72BB7B43F00903DBB2FB72DA
:1001EC0007F108026423009304234221034802F020
:1001FC0075F900BF1037BD4680BD00BF88010020D7
:10020C0080B500AF3320FFF79BFF3220FFF798FF3C
:10021C00322001F01DFA2820FFF792FF322001F066
:10022C0017FA0120FFF78CFF322001F011FA06209B
:10023C00FFF786FF322001F00BFA0C20FFF780FF4E
:10024C00322001F005FA0220FFF77AFF322001F08C
:10025C00FFF9322001F0FCF98020FFF771FF052136
:10026C00012000F02EF8094800F016F800210020BB
:10027C0000F027F8064800F00FF80921002000F0E4
:10028C0020F8044800F008F800BF80BD344800088E
:10029C003C4800084448000880B582B000AF786044
:1002AC0006E07B685A1C7A601B781846FFF778FFCB
:1002BC007B681B78002BF4D100BF00BF0837BD460C
:1002CC0080BD80B584B000AF786039607B68012B4D
:1002DC0008D17B68DAB23B68DBB21344DBB27F3304
:1002EC00FB7308E03B68DBB24033DBB25BB263F01C
:1002FC007F035BB2FB73FB7B1846FFF721FF00BF4C
:10030C001037BD4680BD000080B500AF0E4B1B788A
:10031C00013B032B16D801A252F823F03903000835
:10032C003F030008450300084B03000800F096FA51
:10033C0008E000F037FA05E000F03AFA02E000F0CD
:10034C003DFA00BF00BF80BD0000002080B582B028
:10035C0000AF10212D4801F013FF03463B704FF402
:10036C0080612A4801F00CFF03467B704FF48071CA
:10037C00274801F005FF0346BB704FF40071244879
:10038C0001F0FEFE0346FB700023FB7136E0FB79A7
:10039C0008333B4413F8083C012B23D1FB791D4A4D
:1003AC00D35C002B1ED1FB79032B1CD801A252F875
:1003BC0023F000BFD1030008D9030008E1030008B3
:1003CC00E9030008144B01221A700CE0134B0122B4
:1003DC001A7008E0124B01221A7004E0114B012232
:1003EC001A7000E000BFFA79FB7908323A4412F82F
:1003FC00081C084AD154FB790133FB71FB79032BA0
:10040C00C5D900BF00BF0837BD4680BD000C0140F8
:10041C0000080140BC000020B8000020B9000020FA
:10042C00BA000020BB00002080B500AFFFF78EFFA4
:10043C00304B1B78DBB2002B10D02E4B00221A70E5
:10044C002D4B1B7803F00303DBB20133DAB22A4BDA
:10045C001A70294B1B78184600F0B6F9274B1B78FD
:10046C00DBB2002B16D0254B00221A70224B1B78C6
:10047C00042B0CD0042B0EDC022B02D0032B03D04C
:10048C0009E000F0E5FA06E000F0ECFA03E000F019
:10049C00F3FA00E000BF1A4B1B78DBB2002B16D02E
:1004AC00174B00221A70144B1B78042B0CD0042B06
:1004BC000EDC022B02D0032B03D009E000F0E6FA8D
:1004CC0006E000F0EFFA03E000F0F8FA00E000BFFD
:1004DC000C4B1B78DBB2002B0AD00A4B00221A7093
:1004EC00054B01221A70044B1B78184600F06CF96E
:1004FC0000BF80BDB800002000000020B900002023
:10050C00BA000020BB00002090B585B000AF2D4A8A
:10051C003B1D92E8030083E803000023FB7348E0D3
:10052C00FA7BFB7B2849895C284AD154FB7B5B0016
:10053C0010333B4433F80C3CFC7B1946244801F047
:10054C001FFE03461A46204B1A55FB7B1E4AD25CF3
:10055C00FB7B1E49CB5C9A4205D1FA7BFB7B1A498B
:10056C00895C1C4AD154FB7B1A4AD35C002B14D1F6
:10057C00FB7B194A32F81330632B09D8FB7B164AE4
:10058C0032F81320013291B2134A22F813100DE005
:10059C00FB7B124A0121D15408E0FB7B0E4A00215F
:1005AC0022F81310FB7B0D4A0021D154FB7B013345
:1005BC00FB73FB7B032BB3D900BF00BF1437BD46C5
:1005CC0090BD00BF4C480008C4000020C8000020AB
:1005DC00000C0140C0000020D0000020CC00002006
:1005EC0098B500AF2021204801F0CAFD03461C46F7
:1005FC0008211D4801F0C4FD03469C4208D1082186
:10060C00194801F0ECFD2021174801F0E8FD09E044
:10061C0001222021144801F0CAFD012208211248B0
:10062C0001F0C5FD8021114801F0AAFD03461C46CE
:10063C0040210D4801F0A4FD03469C4208D18021C5
:10064C000A4801F0CCFD4021074801F0C8FD09E043
:10065C0001228021054801F0AAFD01224021024817
:10066C0001F0A5FD00BF98BD000C01400010014039
:10067C0080B500AF00222021084801F098FD082128
:10068C00064801F0ACFD00224021044801F08FFD2A
:10069C008021034801F0A3FD00BF80BD000C014088
:1006AC000010014080B500AF00220821084801F07D
:1006BC007EFD2021064801F092FD00228021054894
:1006CC0001F075FD4021024801F089FD00BF80BD9D
:1006DC00000C01400010014080B500AF0122202128
:1006EC00044801F064FD01220821024801F05FFD7D
:1006FC0000BF80BD000C014080B500AF012220215D
:10070C00044801F054FD00220821024801F04FFD7D
:10071C0000BF80BD000C014080B500AF002220213D
:10072C00044801F044FD01220821024801F03FFD7C
:10073C0000BF80BD000C014080B500AF01228021BC
:10074C00044801F034FD01224021034801F02FFD43
:10075C0000BF80BD00100140000C014080B500AF0F
:10076C0000228021044801F022FD0122402103488F
:10077C0001F01DFD00BF80BD00100140000C0140C8
:10078C0080B500AF01228021044801F010FD002249
:10079C004021034801F00BFD00BF80BD001001405B
:1007AC00000C014080B500AFFFF71AFF00BF80BD01
:1007BC0080B500AFFFF776FF00BF80BD80B500AFFE
:1007CC00FFF756FF00BF80BD80B483B000AF7860E8
:1007DC00034A7B68136000BF0C37BD4680BC704772
:1007EC000400002080B500AF154B1B681A46154954
:1007FC00154803F093FB154B1B681A461149144816
:10080C0003F08CFB134B1B681A460E49124803F07D
:10081C0085FB0B210120FFF754FD0F48FFF73CFD32
:10082C0006210020FFF74DFD0748FFF735FD0F218E
:10083C000020FFF746FD0648FFF72EFD00BF80BDE8
:10084C00D800002054480008EC000020DC000020F8
:10085C00F8000020040000200401002080B500AF47
:10086C0000226821454801F0A2FC00228021444866
:10087C0001F09DFC434B1B68002B09DB414B1B68B3
:10088C005A1E40490A60404A1360FFF755FF1AE0B0
:10089C003E4B1B68002B09DBFFF772FF3B4B1B68C1
:1008AC005A1E3A490A60384A13600CE0384B1B68F0
:1008BC00002B08DB364B1B685A1E35490A60324A3E
:1008CC001360FFF74BFF334B1B68002B09DB314BDD
:1008DC001B685A1E2F490A602F4A1360FFF71CFF32
:1008EC001AE02E4B1B68002B09DB2C4B1B685A1E85
:1008FC002A490A60284A1360FFF7FEFE0CE0284BD9
:10090C001B68002B08DB264B1B685A1E24490A6007
:10091C00214A1360FFF7E0FE214B1B68002B13DA12
:10092C001C4B1B68002B0FDA1C4B1B68002B0BDAC3
:10093C001C4B1B681A4A13601B4B1B68154A13602F
:10094C001A4B1B68154A13600E4B1B68002B13DAED
:10095C000E4B1B68002B0FDA0D4B1B68002B0BDAB0
:10096C00104B1B68074A13600F4B1B68074A136038
:10097C000E4B1B68064A136000BF80BD000C014083
:10098C000010014008000020D800002010000020BA
:10099C000C0000201C000020DC00002018000020AF
:1009AC00140000202000002028000020240000203B
:1009BC0080B483B000AF7860054A7B681360054A49
:1009CC007B68136000BF0C37BD4680BC704700BF0E
:1009DC00D8000020DC00002080B483B000AF786029
:1009EC007B681B685A1C7B681A607B681B680A2B27
:1009FC0002DD7B6801221A607B681B68054A136064
:100A0C007B681B68044A136000BF0C37BD4680BC72
:100A1C00704700BFD8000020DC00002080B582B0F9
:100A2C0000AF786039607B681B68002B0BDD7B683E
:100A3C001A683B681A607B6800221A603B681B6866
:100A4C001846FFF7B5FF00BF0837BD4680BD000054
:100A5C0080B500AF0248FFF7BFFF00BF80BD00BFED
:100A6C00E000002080B500AF0248FFF7B5FF00BFE3
:100A7C0080BD00BFE400002080B500AF0248FFF746
:100A8C00ABFF00BF80BD00BFE800002080B500AF09
:100A9C0002490348FFF7C2FF00BF80BD20000020C1
:100AAC00E000002080B500AF02490348FFF7B6FF15
:100ABC0000BF80BD24000020E400002080B500AF02
:100ACC0002490348FFF7AAFF00BF80BD28000020A1
:100ADC00E800002080B483B000AF786000BF0C3712
:100AEC00BD4680BC704780B582B000AF786000F026
:100AFC0095FA00BF0837BD4680BD000080B500AF39
:100B0C0000F044FD00F036F800F06CF900F040F90C
:100B1C0000F0C4F800F084F800F0EEF8FFF770FB7A
:100B2C000F4802F049FD00F017FA012200210D4890
:100B3C0000F01EFA012201210B4800F019FA0A22DA
:100B4C0003210A4800F014FA01220421084800F09D
:100B5C000FFA00F0F7FA00210120FFF7B2FBF8E7DB
:100B6C0010010020F1070008150500081503000806
:100B7C003504000880B594B000AF07F12803282293
:100B8C000021184603F0C2F907F1140300221A6081
:100B9C005A609A60DA601A613B1D00221A605A6032
:100BAC009A60DA600223BB620123BB631023FB63F0
:100BBC0002237B640023BB640023FB6407F128033E
:100BCC00184601F0E3FF0346002B01D000F0BEF9FC
:100BDC000F237B610223BB610023FB614FF4806315
:100BEC003B6200237B6207F114030021184602F0DC
:100BFC004FFA0346002B01D000F0A8F902237B60CA
:100C0C000023FB603B1D184602F0D0FB0346002B73
:100C1C0001D000F09BF900BF5037BD4680BD0000ED
:100C2C0080B584B000AF3B1D00221A605A609A60F8
:100C3C00184B194A1A60174B00229A60154B012267
:100C4C001A73144B00221A75124B4FF46022DA619E
:100C5C00104B00225A600F4B01221A610D4800F014
:100C6C001BFD0346002B01D000F070F900237B60C4
:100C7C000123BB600023FB603B1D1946054800F0B7
:100C8C00ABFE0346002B01D000F060F900BF10371B
:100C9C00BD4680BD580100200024014080B500AF46
:100CAC00124B134A1A60114B124A5A600F4B002216
:100CBC009A600E4B0022DA600C4B4FF480421A61A2
:100CCC000A4B00225A61094B00229A61074B002201
:100CDC00DA61064B00221A62044801F0BBFA0346A3
:100CEC00002B01D000F032F900BF80BD880100203C
:100CFC0000540040A086010080B586B000AF07F11B
:100D0C00080300221A605A609A60DA603B4600229F
:100D1C001A605A601D4B4FF080421A601B4B4FF605
:100D2C00FF125A60194B00229A60184B0922DA60A4
:100D3C00164B00221A61154B00229A61134802F0DF
:100D4C00EBFB0346002B01D000F000F94FF480536D
:100D5C00BB6007F1080319460C4802F06FFD03460F
:100D6C00002B01D000F0F2F800233B6000237B60E5
:100D7C003B461946054802F051FF0346002B01D0B3
:100D8C0000F0E4F800BF1837BD4680BD100100200C
:100D9C0080B500AF114B124A1A60104B4FF4E13280
:100DAC005A600E4B00229A600C4B0022DA600B4BFF
:100DBC0000221A61094B0C225A61084B00229A61DD
:100DCC00064B0022DA61054802F098FF0346002B1F
:100DDC0001D000F0BBF800BF80BD00BFDC010020DB
:100DEC000044004080B588B000AF07F1100300222A
:100DFC001A605A609A60DA604F4B9B694E4A43F016
:100E0C00100393614C4B9B6903F01003FB60FB6870
:100E1C00494B9B69484A43F020039361464B9B69BD
:100E2C0003F02003BB60BB68434B9B69424A43F011
:100E3C0004039361404B9B6903F004037B607B6864
:100E4C003D4B9B693C4A43F0080393613A4B9B69C9
:100E5C0003F008033B603B6800222021374801F077
:100E6C00A6F94FF400533B61354B7B610023BB610A
:100E7C0007F110031946334800F0FEFF20233B61B5
:100E8C0001237B610023BB610223FB6107F110038B
:100E9C0019462A4800F0F0FF002249F2F8012A48CE
:100EAC0001F085F900228021264801F080F9802389
:100EBC003B6101237B610023BB610223FB6107F1D2
:100ECC00100319461F4800F0D7FF40233B6107F180
:100EDC00100319461C4800F0CFFF49F2F8033B61A0
:100EEC0007F110031946184800F0C6FF4FF482634F
:100EFC003B6100237B610123BB6107F110031946A1
:100F0C00114800F0B9FF4FF440733B6100237B6143
:100F1C000123BB6107F110031946084800F0ACFF30
:100F2C0000220021282000F070FF282000F089FF0B
:100F3C0000BF2037BD4680BD0010024000080140B4
:100F4C000000111000100140000C014080B400AFF3
:100F5C0072B600BFFEE7000080B400AF034B002266
:100F6C001A7000BFBD4680BC704700BF440500200E
:100F7C0080B485B000AFF860B9607A60254B1B78FF
:100F8C00272B42D8234B1B781946234A0B469B0030
:100F9C000B449B001344FA681A601E4B1B781946CD
:100FAC001D4A0B469B000B449B0013440433BA6848
:100FBC001A60184B1B781946174A0B469B000B44BA
:100FCC009B00134408337A681A60124B1B7819463D
:100FDC00114A0B469B000B449B0013440C3300221C
:100FEC001A700C4B1A780B4B1B78194610460A4A90
:100FFC000B469B000B449B00134410331860054BAD
:10100C001B780133DAB2034B1A7000BF1437BD469C
:10101C0080BC7047440500202402002080B483B0BB
:10102C0000AF0023FB7147E0FA79294913469B0076
:10103C0013449B000B4404331B68002B12D0FA7929
:10104C00234913469B0013449B000B4404331B6839
:10105C00591E1F4813469B0013449B000344043342
:10106C00196026E0F979FA7919480B469B000B4474
:10107C009B00034408331968154813469B0013441E
:10108C009B00034404331960FA79114913469B0001
:10109C0013449B000B440C331B78FA790133D8B200
:1010AC000B4913469B0013449B000B440C33024624
:1010BC001A70FB790133FB71064B1B78FA799A4253
:1010CC00B2D300BF00BF0C37BD4680BC704700BF19
:1010DC00240200204405002080B483B000AF786067
:1010EC007B68272B27D816497A6813469B00134434
:1010FC009B000B4400221A6011497A6813469B002E
:10110C0013449B000B44043300221A600C497A6888
:10111C0013469B0013449B000B44083300221A60B7
:10112C0007497A6813469B0013449B000B440C330D
:10113C0000221A7000E000BF0C37BD4680BC70471F
:10114C002402002080B582B000AF0023FB7141E087
:10115C00FA79254913469B0013449B000B440C332E
:10116C001B78002B33D0FA791F4913469B0013448C
:10117C009B000B441B689847FA791B4913469B004C
:10118C0013449B000B440C331B78013BD8B216491B
:10119C0013469B0013449B000B440C3302461A70FD
:1011AC00FA79114913469B0013449B000B440833F6
:1011BC001B68002B0BD1FA790B4913469B00134487
:1011CC009B000B4410331B681846FFF785FFFB7917
:1011DC000133FB71054B1B78FA799A42B8D300BFE7
:1011EC0000BF0837BD4680BD240200204405002006
:1011FC0080B485B000AF154B9B69144A43F00103D2
:10120C009361124B9B6903F00103BB60BB680F4BEE
:10121C00DB690E4A43F08053D3610C4BDB6903F05E
:10122C0080537B607B680A4B5B68FB60FB6823F038
:10123C00E063FB60FB6843F00073FB60044AFB68EF
:10124C00536000BF1437BD4680BC7047001002408D
:10125C000000014080B588B000AF786007F1100342
:10126C0000221A605A609A60DA607B681B68184A20
:10127C00934229D1174B9B69164A43F4007393612F
:10128C00144B9B6903F40073FB60FB68114B9B6967
:10129C00104A43F0040393610E4B9B6903F0040363
:1012AC00BB60BB6801233B6103237B6107F1100327
:1012BC001946094800F0E0FD00220021122000F040
:1012CC00A4FD122000F0BDFD00BF2037BD4680BD3F
:1012DC0000240140001002400008014080B58AB093
:1012EC0000AF786007F1140300221A605A609A600C
:1012FC00DA607B681B681D4A934232D11C4B9B6998
:10130C001B4A43F008039361194B9B6903F00803D4
:10131C003B613B694FF440737B611223BB61032338
:10132C003B6207F114031946124800F0A5FD124B5D
:10133C005B687B627B6A43F0E0637B627B6A43F0B1
:10134C0002037B620C4A7B6A5360094BDB69084AD7
:10135C0043F40013D361064BDB6903F40013FB6009
:10136C00FB6800BF2837BD4680BD00BF005400405D
:10137C0000100240000C01400000014080B584B018
:10138C0000AF78607B681B68B3F1804F13D10C4BB6
:10139C00DB690B4A43F00103D361094BDB6903F0B2
:1013AC000103FB60FB68002200211C2000F02DFDD6
:1013BC001C2000F046FD00BF1037BD4680BD00BFAD
:1013CC000010024080B588B000AF786007F11003C0
:1013DC0000221A605A609A60DA607B681B68154AB2
:1013EC00934223D1144BDB69134A43F40033D3618A
:1013FC00114BDB6903F40033FB60FB680E4B9B69FC
:10140C000D4A43F0040393610B4B9B6903F00403F7
:10141C00BB60BB680C233B6102237B610223FB6135
:10142C0007F110031946054800F026FD00BF2037D0
:10143C00BD4680BD00440040001002400008014041
:10144C0080B400AFFEE780B400AFFEE780B400AF1D
:10145C00FEE780B400AFFEE780B400AFFEE780B4D7
:10146C0000AF00BFBD4680BC704780B400AF00BF6A
:10147C00BD4680BC704780B400AF00BFBD4680BC89
:10148C00704780B500AF00F0C7F800BF80BD00000A
:10149C0080B500AF024800F0D7F900BF80BD00BF97
:1014AC005801002080B500AF024802F0D7F800BF09
:1014BC0080BD00BF1001002080B500AF4FF400507C
:1014CC0000F0A6FE00BF80BD80B586B000AF78608E
:1014DC00144A154BD31A7B617B693B61134B1B6818
:1014EC00002B02D1114B124A1A60104B1A687B6800
:1014FC0013443A699A4207D202F0DEFC03460C22EE
:10150C001A604FF0FF3309E0084B1B68FB60074B78
:10151C001A687B681344054A1360FB681846183731
:10152C00BD4680BD0050002000040000480500208E
:10153C006005002080B400AF00BFBD4680BC704782
:10154C00FFF7F8FF0B480C490C4A002302E0D45873
:10155C00C4500433C4188C42F9D3094A094C0023F3
:10156C0001E013600432A242FBD302F0ABFCFFF7A4
:10157C00C5FA7047000000209C000020C0480008FD
:10158C009C00002060050020FEE7000080B500AF45
:10159C00084B1B68074A43F010031360032000F04C
:1015AC0029FC002000F008F8FFF722FE0023184663
:1015BC0080BD00BF0020024080B582B000AF7860D3
:1015CC00124B1A68124B1B7819464FF47A73B3FB03
:1015DC00F1F3B2FBF3F3184600F041FC0346002B89
:1015EC0001D001230EE07B680F2B0AD8002279680A
:1015FC004FF0FF3000F009FC064A7B6813600023B3
:10160C0000E0012318460837BD4680BD2C000020A1
:10161C00340000203000002080B400AF054B1B7854
:10162C001A46054B1B681344034A136000BFBD46A2
:10163C0080BC7047340000204C05002080B400AF03
:10164C00024B1B681846BD4680BC70474C050020F9
:10165C0080B584B000AF7860FFF7F0FFB8607B68AE
:10166C00FB60FB68B3F1FF3F05D00A4B1B781A46B1
:10167C00FB681344FB6000BFFFF7E0FF0246BB684A
:10168C00D31AFA689A42F7D800BF00BF1037BD468C
:10169C0080BD00BF3400002080B586B000AF7860FC
:1016AC000023FB7500233B610023BB600023FB6020
:1016BC007B68002B01D10123BEE07B689B68002B6B
:1016CC007B689B6A002B09D17B680022DA627B68FD
:1016DC00002283F824207868FFF7BCFD786800F0BE
:1016EC0073FA0346FB757B689B6A03F01003002BAF
:1016FC0040F09980FB7D002B40F095807B689B6AC5
:10170C0023F4885323F0020343F002027B689A62AD
:10171C007B685A687B68DB691A437B681B7B5B00C0
:10172C001343BA681343BB607B689B68B3F5807F37
:10173C0003D07B689B68012B02D14FF4807300E0CF
:10174C0000233A6913433B617B681B7D012B19D144
:10175C007B681B7B002B09D17B689B69013B5A037F
:10176C003B69134343F400633B610BE07B689B6A6A
:10177C0043F020027B689A627B68DB6A43F00102CB
:10178C007B68DA627B681B685B6823F469417B6861
:10179C001B683A690A435A607B681B689A68284B35
:1017AC0013407A681268B9680B4393607B689B6836
:1017BC00B3F5807F03D07B689B68012B04D17B68D9
:1017CC001B69013B1B05FB607B681B68DB6A23F410
:1017DC0070017B681B68FA680A43DA627B681B68D5
:1017EC009A68184B1340BA689A420BD17B68002256
:1017FC00DA627B689B6A23F0030343F001027B6887
:10180C009A6218E07B689B6A23F0120343F0100283
:10181C007B689A627B68DB6A43F001027B68DA6260
:10182C000123FB7507E07B689B6A43F010027B6821
:10183C009A620123FB75FB7D18461837BD4680BDA7
:10184C00FDF7E1FFFE0E1FFF80B584B000AF78609E
:10185C007B681B681B68FB607B681B685B68BB60F4
:10186C00BB6803F02003002B3ED0FB6803F002039F
:10187C00002B39D07B689B6A03F01003002B05D139
:10188C007B689B6A43F400727B689A627B681B6876
:10189C009B6803F46023B3F5602F1DD17B681B7B21
:1018AC00002B19D17B681B685A687B681B6822F077
:1018BC0020025A607B689B6A23F480727B689A6270
:1018CC007B689B6A03F48053002B05D17B689B6A71
:1018DC0043F001027B689A627868FFF7FBF87B683B
:1018EC001B686FF012021A60BB6803F08003002BB8
:1018FC004DD0FB6803F00403002B48D07B689B6A37
:10190C0003F01003002B05D17B689B6A43F4005253
:10191C007B689A627B681B689B6803F4E043B3F5B1
:10192C00E04F12D07B681B685B6803F48063002B6C
:10193C0025D17B681B689B6803F46023B3F5602F8B
:10194C001DD17B681B7B002B19D17B681B685A68E7
:10195C007B681B6822F080025A607B689B6A23F4C8
:10196C0080527B689A627B689B6A03F48073002BBD
:10197C0005D17B689B6A43F001027B689A627868A8
:10198C0000F063F97B681B686FF00C021A60BB688F
:10199C0003F04003002B12D0FB6803F00103002B73
:1019AC000DD07B689B6A43F480327B689A627868BE
:1019BC0000F009F87B681B686FF001021A6000BF29
:1019CC001037BD4680BD80B483B000AF786000BFD7
:1019DC000C37BD4680BC704780B485B000AF7860D2
:1019EC0039600023FB730023BB607B6893F82430C1
:1019FC00012B01D10223DCE07B68012283F8242037
:101A0C003B685B68062B1CD87B681B68596B3B6872
:101A1C005A6813469B001344053B1F2202FA03F33A
:101A2C00DB4319403B6818683B685A6813469B00B7
:101A3C001344053B00FA03F27B681B680A435A63A4
:101A4C003CE03B685B680C2B1CD87B681B68196BF3
:101A5C003B685A6813469B001344233B1F2202FA2F
:101A6C0003F3DB4319403B6818683B685A6813461C
:101A7C009B001344233B00FA03F27B681B680A4368
:101A8C001A631BE07B681B68D96A3B685A6813466B
:101A9C009B001344413B1F2202FA03F3DB43194022
:101AAC003B6818683B685A6813469B001344413BDB
:101ABC0000FA03F27B681B680A43DA623B681B6816
:101ACC00092B1CD97B681B68D9683B681A681346BC
:101ADC005B0013441E3B072202FA03F3DB4319405D
:101AEC003B6898683B681A6813465B0013441E3BBE
:101AFC0000FA03F27B681B680A43DA6019E07B6822
:101B0C001B6819693B681A6813465B00134407226B
:101B1C0002FA03F3DB4319403B6898683B681A6888
:101B2C0013465B00134400FA03F27B681B680A43FC
:101B3C001A613B681B68102B03D03B681B68112B88
:101B4C0032D17B681B681D4A934225D17B681B6888
:101B5C009B6803F40003002B26D17B681B689A68F2
:101B6C007B681B6842F400029A603B681B68102B70
:101B7C001AD1134B1B68134AA2FB03239A0C13466E
:101B8C009B0013445B00BB6002E0BB68013BBB6085
:101B9C00BB68002BF9D107E07B689B6A43F02002FD
:101BAC007B689A620123FB737B68002283F82420F4
:101BBC00FB7B18461437BD4680BC7047002401409F
:101BCC002C00002083DE1B4380B584B000AF78600E
:101BDC000023FB607B681B689B6803F00103012BEF
:101BEC002ED17B681B689A687B681B6822F0010207
:101BFC009A60FFF723FDF8601BE0FFF71FFD02461C
:101C0C00FB68D31A022B14D97B681B689B6803F002
:101C1C000103012B0DD17B689B6A43F010027B689A
:101C2C009A627B68DB6A43F001027B68DA6201230B
:101C3C0007E07B681B689B6803F00103012BDCD079
:101C4C00002318461037BD4680BD80B483B000AF6A
:101C5C00786000BF0C37BD4680BC704780B485B03F
:101C6C0000AF78607B6803F00703FB600C4BDB680C
:101C7C00BB60BA684FF6FF031340BB60FB681A02E7
:101C8C00BB68134343F0BF6343F40033BB60044AA7
:101C9C00BB68D36000BF1437BD4680BC704700BF23
:101CAC0000ED00E080B400AF044BDB681B0A03F0CE
:101CBC0007031846BD4680BC704700BF00ED00E02E
:101CCC0080B483B000AF0346FB7197F90730002B4B
:101CDC000BDBFB7903F01F02064997F907305B0910
:101CEC00012000FA02F241F8232000BF0C37BD4658
:101CFC0080BC704700E100E080B483B000AF0346C5
:101D0C003960FB7197F90730002B0ADB3B68DAB2BC
:101D1C000C4997F907301201D2B20B4483F8002317
:101D2C000AE03B68DAB20849FB7903F00F03043B85
:101D3C001201D2B20B441A7600BF0C37BD4680BCE0
:101D4C00704700BF00E100E000ED00E080B489B016
:101D5C0000AFF860B9607A60FB6803F00703FB61C1
:101D6C00FB69C3F10703042B28BF0423BB61FB6988
:101D7C000433062B02D9FB69033B00E000237B6193
:101D8C004FF0FF32BB6902FA03F3DA43BB681A4027
:101D9C007B699A404FF0FF317B6901FA03F3D94319
:101DAC007B680B40134318462437BD4680BC7047F4
:101DBC0080B582B000AF78607B68013BB3F1807F67
:101DCC0001D301230FE00A4A7B68013B53600F21CA
:101DDC004FF0FF30FFF790FF054B00229A60044B49
:101DEC0007221A60002318460837BD4680BD00BF85
:101DFC0010E000E080B582B000AF78607868FFF743
:101E0C002DFF00BF0837BD4680BD80B586B000AF42
:101E1C000346B9607A60FB7300237B61FFF742FFD6
:101E2C0078617A68B9687869FFF790FF024697F98C
:101E3C000F3011461846FFF75FFF00BF1837BD463D
:101E4C0080BD80B582B000AF0346FB7197F90730B7
:101E5C001846FFF735FF00BF0837BD4680BD80B57B
:101E6C0082B000AF78607868FFF7A2FF034618468F
:101E7C000837BD4680BD000080B48BB000AF7860E1
:101E8C00396000237B6200233B6269E101227B6A9B
:101E9C0002FA03F3FB613B681B68FA691340BB61F0
:101EAC00BA69FB699A4240F058813B685B689A4A70
:101EBC0093425ED0984A934275D8984A934258D030
:101ECC00964A93426FD8964A934252D0944A934280
:101EDC0069D8944A93424CD0924A934263D8924A1E
:101EEC00934246D0904A93425DD8122B2AD8122B9B
:101EFC0059D801A252F823F07F1F0008591F00087F
:101F0C006B1F0008AD1F0008B31F0008B31F0008AB
:101F1C00B31F0008B31F0008B31F0008B31F00084D
:101F2C00B31F0008B31F0008B31F0008B31F00083D
:101F3C00B31F0008B31F0008B31F0008611F00087F
:101F4C00751F0008794A934213D02CE03B68DB687C
:101F5C003B6229E03B68DB6804333B6224E03B686E
:101F6C00DB6808333B621FE03B68DB680C333B6289
:101F7C001AE03B689B68002B02D104233B6213E000
:101F8C003B689B68012B05D108233B627B68FA698F
:101F9C001A6109E008233B627B68FA695A6103E025
:101FAC0000233B6200E000BFBB69FF2B01D87B68BC
:101FBC0001E07B6804337B61BB69FF2B02D87B6A31
:101FCC009B0002E07B6A083B9B003B617B691A68C3
:101FDC000F213B6901FA03F3DB431A40396A3B6971
:101FEC0001FA03F31A437B691A603B685B6803F0E0
:101FFC008053002B00F0B1804D4B9B694C4A43F051
:10200C00010393614A4B9B6903F00103BB60BB68FE
:10201C00484A7B6A9B08023352F82330FB607B6A88
:10202C0003F003039B000F2202FA03F3DB43FA686D
:10203C001340FB607B68404A934213D07B683F4A55
:10204C0093420DD07B683E4A934207D07B683D4A51
:10205C00934201D1032306E0042304E0022302E0AF
:10206C00012300E000237A6A02F0030292009340FD
:10207C00FA681343FB602F497B6A9B080233FA68AA
:10208C0041F823203B685B6803F48013002B06D0D7
:10209C002D4B9A682C49BB6913438B6006E02A4B85
:1020AC009A68BB69DB43284913408B603B685B68CB
:1020BC0003F40013002B06D0234BDA682249BB69CA
:1020CC001343CB6006E0204BDA68BB69DB431E4947
:1020DC001340CB603B685B6803F40033002B06D0E5
:1020EC00194B5A681849BB6913434B6006E0164BF1
:1020FC005A68BB69DB43144913404B603B685B680F
:10210C0003F48033002B21D00F4B1A680E49BB69A6
:10211C0013430B6021E000BF0000321000003110AF
:10212C0000002210000021100000121000001110FD
:10213C00001002400000014000080140000C01406A
:10214C000010014000140140000401400B4B1A68C0
:10215C00BB69DB43094913400B607B6A01337B622B
:10216C003B681A687B6A22FA03F3002B7FF48EAE6D
:10217C0000BF00BF2C37BD4680BC70470004014037
:10218C0080B485B000AF78600B467B807B689A6822
:10219C007B881340002B02D00123FB7301E000234A
:1021AC00FB73FB7B18461437BD4680BC704780B46C
:1021BC0083B000AF78600B467B8013467B707B78D6
:1021CC00002B03D07A887B681A6103E07B881A04A1
:1021DC007B681A6100BF0C37BD4680BC704780B469
:1021EC0085B000AF78600B467B807B68DB68FB605A
:1021FC007A88FB6813401A04FB68D9437B880B4030
:10220C001A437B681A6100BF1437BD4680BC704707
:10221C0080B582B000AF0346FB80084B5A69FB883F
:10222C001340002B06D0054AFB885361FB881846E7
:10223C0000F006F800BF0837BD4680BD0004014021
:10224C0080B483B000AF0346FB8000BF0C37BD46A3
:10225C0080BC704780B584B000AF78607B68002B81
:10226C0001D101232BE17B6893F83D30DBB2002BCD
:10227C0006D17B68002283F83C207868FFF72EF8A3
:10228C007B68242283F83D207B681B681A687B6876
:10229C001B6822F001021A607B681B681A687B6855
:1022AC001B6842F400421A607B681B681A687B68E2
:1022BC001B6822F400421A6001F032F8F8607B6867
:1022CC005B68814A934207D8FB68804A934294BF6B
:1022DC0001230023DBB206E0FB687D4A934294BFE6
:1022EC0001230023DBB2002B01D00123E7E0FB68C4
:1022FC00784AA2FB03239B0CBB607B681B685B6862
:10230C0023F03F017B681B68BA680A435A607B68FC
:10231C001B681B6A23F03F017B685B686A4A934227
:10232C0002D8BB68013309E0BB684FF4967202FB1C
:10233C0003F3694AA2FB03239B0901337A681268F1
:10234C000B4313627B681B68DB6923F44F4222F05A
:10235C00FF027B685B685C498B4219D8FB68591E8D
:10236C007B685B685B00B1FBF3F3591C40F6FC73B4
:10237C000B40002B0AD0FB68591E7B685B685B0026
:10238C00B1FBF3F30133C3F30B0351E004234FE030
:10239C007B689B68002B11D1FB68581E7B685968C1
:1023AC000B465B000B44B0FBF3F30133C3F30B039D
:1023BC00002B0CBF01230023DBB212E0FB68581E7C
:1023CC007B6859680B469B000B4499000B44B0FB8F
:1023DC00F3F30133C3F30B03002B0CBF01230023D6
:1023EC00DBB2002B01D0012322E07B689B68002B21
:1023FC000ED1FB68581E7B6859680B465B000B447A
:10240C00B0FBF3F30133C3F30B0343F400430FE0CE
:10241C00FB68581E7B6859680B469B000B4499005F
:10242C000B44B0FBF3F30133C3F30B0343F440430E
:10243C00796809681343CB617B681B681B6823F0C0
:10244C00C0017B68DA697B681B6A1A437B681B686E
:10245C000A431A607B681B689B6823F4034323F0D0
:10246C00FF037A6811697A68D26811437A68126836
:10247C000B4393607B681B68DB6823F0FF017B6870
:10248C005A697B689B691A437B681B680A43DA604C
:10249C007B681B681A687B681B6842F001021A6033
:1024AC007B6800221A647B68202283F83D207B68BD
:1024BC0000221A637B68002283F83E200023184612
:1024CC001037BD4680BD00BFA08601007F841E0072
:1024DC00FF083D0083DE1B43D34D621080B588B0EE
:1024EC0002AFF8607A601A460B467B8113463B813B
:1024FC00FFF7A4F87861FB6893F83D30DBB2202B32
:10250C0040F0E0807B690093192301227049F86840
:10251C0000F064F90346002B01D00223D3E0FB68E2
:10252C0093F83C30012B01D10223CCE0FB68012253
:10253C0083F83C20FB681B681B6803F00103012B2C
:10254C0007D0FB681B681A68FB681B6842F0010225
:10255C001A60FB681B681A68FB681B6822F400622F
:10256C001A60FB68212283F83D20FB68102283F857
:10257C003E20FB6800221A64FB687A685A62FB688A
:10258C003A895A85FB685B8D9AB2FB681A85FB68A1
:10259C00504ADA6279897B693A6AF86800F09CF8EB
:1025AC000346002B01D001238DE000233B61FB6827
:1025BC001B685B693B61FB681B689B693B613B6902
:1025CC0066E07A69396AF86800F022FA0346002B53
:1025DC000DD0FB681B6C042B07D1FB681B681A68B9
:1025EC00FB681B6842F400721A6001236BE0FB6805
:1025FC005B6A1A78FB681B681A61FB685B6A5A1C79
:10260C00FB685A62FB685B8D9BB2013B9AB2FB681C
:10261C005A85FB681B8D013B9AB2FB681A85FB68D7
:10262C001B685B6903F00403042B1BD1FB681B8D37
:10263C00002B17D0FB685B6A1A78FB681B681A6161
:10264C00FB685B6A5A1CFB685A62FB685B8D9BB229
:10265C00013B9AB2FB685A85FB681B8D013B9AB211
:10266C00FB681A857A69396AF86800F019FA03462A
:10267C00002B0DD0FB681B6C042B07D1FB681B686F
:10268C001A68FB681B6842F400721A6001231AE096
:10269C00FB681B8D002B94D1FB681B681A68FB68C8
:1026AC001B6842F400721A60FB68202283F83D20FC
:1026BC00FB68002283F83E20FB68002283F83C2054
:1026CC00002300E0022318461837BD4680BD00BF2A
:1026DC00020010000000FFFF80B588B002AFF86068
:1026EC007A603B600B467B81FB68DB6A7B617B69B4
:1026FC00082B06D07B69012B03D07B6913F5803F37
:10270C0008D1FB681B681A68FB681B6842F480726E
:10271C001A600BE0FB681B6B122B07D1FB681B6864
:10272C001A68FB681B6842F480721A603B6800935D
:10273C007B6800224FF00111F86800F04FF8034657
:10274C00002B0DD0FB681B681B6803F48073B3F57A
:10275C00807F03D1FB684FF400721A64032335E0C9
:10276C00FB681B69B3F5804F08D17B89DBB21A4635
:10277C00FB681B6802F0FE021A611BE07B89DB110F
:10278C00DBB203F00603DBB263F00F03DAB2FB68D3
:10279C001B681A613B687A680E49F86800F098F873
:1027AC000346002B01D0012310E07B89DAB2FB68D1
:1027BC001B681A613B687A680749F86800F088F86A
:1027CC000346002B01D0012300E0002318461837E4
:1027DC00BD4680BD080001000200010080B584B038
:1027EC0000AFF860B9603B601346FB7148E03B6892
:1027FC00B3F1FF3F44D0FEF721FF0246BB69D31A69
:10280C003A689A4202D33B68002B39D1BB681B0C47
:10281C00DBB2012B0DD1FB681B685B69DA43BB682B
:10282C0013409BB2002B0CBF01230023DBB21A46D2
:10283C000CE0FB681B689B69DA43BB6813409BB2D6
:10284C00002B0CBF01230023DBB21A46FB799A4202
:10285C0016D1FB6800221A63FB68202283F83D2006
:10286C00FB68002283F83E20FB681B6C43F02002BF
:10287C00FB681A64FB68002283F83C20012323E0E8
:10288C00BB681B0CDBB2012B0DD1FB681B685B69B1
:10289C00DA43BB6813409BB2002B0CBF012300230F
:1028AC00DBB21A460CE0FB681B689B69DA43BB6819
:1028BC0013409BB2002B0CBF01230023DBB21A4642
:1028CC00FB799A4293D0002318461037BD4680BD41
:1028DC0080B584B000AFF860B9607A603B6071E09D
:1028EC00FB681B685B6903F48063B3F5806F23D1CD
:1028FC00FB681B681A68FB681B6842F400721A605C
:10290C00FB681B686FF480625A61FB6800221A63D3
:10291C00FB68202283F83D20FB68002283F83E20D0
:10292C00FB681B6C43F00402FB681A64FB68002212
:10293C0083F83C20012367E07B68B3F1FF3F41D073
:10294C00FEF77CFE02463B68D31A7A689A4202D3A1
:10295C007B68002B36D1BB681B0CDBB2012B0CD176
:10296C00FB681B685B69DA43BB6813409BB2002BA6
:10297C0014BF01230023DBB20BE0FB681B689B69CF
:10298C00DA43BB6813409BB2002B14BF0123002316
:10299C00DBB2002B16D0FB6800221A63FB682022E6
:1029AC0083F83D20FB68002283F83E20FB681B6CFB
:1029BC0043F02002FB681A64FB68002283F83C2079
:1029CC00012321E0BB681B0CDBB2012B0CD1FB6893
:1029DC001B685B69DA43BB6813409BB2002B14BFC6
:1029EC0001230023DBB20BE0FB681B689B69DA4315
:1029FC00BB6813409BB2002B14BF01230023DBB236
:102A0C00002B7FF46DAF002318461037BD4680BDF8
:102A1C0080B584B000AFF860B9607A6034E0F868D3
:102A2C0000F086F80346002B01D0012334E0BB688C
:102A3C00B3F1FF3F28D0FEF701FE02467B68D31AA4
:102A4C00BA689A4202D3BB68002B1DD1FB681B6885
:102A5C005B6903F08003802B16D0FB6800221A639D
:102A6C00FB68202283F83D20FB68002283F83E207F
:102A7C00FB681B6C43F02002FB681A64FB680022A5
:102A8C0083F83C20012307E0FB681B685B6903F0BB
:102A9C008003802BC3D1002318461037BD4680BD60
:102AAC0080B584B000AFF860B9607A6034E0F86843
:102ABC0000F03EF80346002B01D0012334E0BB6844
:102ACC00B3F1FF3F28D0FEF7B9FD02467B68D31A5D
:102ADC00BA689A4202D3BB68002B1DD1FB681B68F5
:102AEC005B6903F00403042B16D0FB6800221A6305
:102AFC00FB68202283F83D20FB68002283F83E20EF
:102B0C00FB681B6C43F02002FB681A64FB68002214
:102B1C0083F83C20012307E0FB681B685B6903F02A
:102B2C000403042BC3D1002318461037BD4680BDC7
:102B3C0080B483B000AF78607B681B685B6903F47A
:102B4C008063B3F5806F1BD17B681B686FF4806268
:102B5C005A617B6800221A637B68202283F83D202F
:102B6C007B68002283F83E207B681B6C43F00402D8
:102B7C007B681A647B68002283F83C20012300E008
:102B8C00002318460C37BD4680BC704780B586B014
:102B9C0000AF78607B68002B01D1012372E27B6867
:102BAC001B6803F00103002B00F08780924B5B68DD
:102BBC0003F00C03042B0CD08F4B5B6803F00C035D
:102BCC00082B12D18C4B5B6803F48033B3F5803F38
:102BDC000BD1894B1B6803F40033002B6CD07B6842
:102BEC005B68002B68D101234CE27B685B68B3F512
:102BFC00803F06D1804B1B687F4A43F480331360BF
:102C0C002EE07B685B68002B0CD17B4B1B687A4AEF
:102C1C0023F480331360784B1B68774A23F48023AA
:102C2C0013601DE07B685B68B3F5A02F0CD1724B71
:102C3C001B68714A43F4802313606F4B1B686E4A08
:102C4C0043F4803313600BE06B4B1B686A4A23F42C
:102C5C0080331360684B1B68674A23F4802313602E
:102C6C007B685B68002B13D0FEF7E8FC386108E04A
:102C7C00FEF7E4FC02463B69D31A642B01D903230B
:102C8C0000E25D4B1B6803F40033002BF0D014E022
:102C9C00FEF7D4FC386108E0FEF7D0FC02463B6935
:102CAC00D31A642B01D90323ECE1534B1B6803F4B7
:102CBC000033002BF0D100E000BF7B681B6803F0F1
:102CCC000203002B63D04C4B5B6803F00C03002B0E
:102CDC000BD0494B5B6803F00C03082B1CD1464B03
:102CEC005B6803F48033002B16D1434B1B6803F055
:102CFC000203002B05D07B681B69012B01D001233B
:102D0C00C0E13D4B1B6823F0F8027B685B69DB007C
:102D1C00394913430B603AE07B681B69002B20D0C8
:102D2C00364B01221A60FEF789FC386108E0FEF789
:102D3C0085FC02463B69D31A022B01D90323A1E17E
:102D4C002D4B1B6803F00203002BF0D02A4B1B68A1
:102D5C0023F0F8027B685B69DB00274913430B60A7
:102D6C0015E0264B00221A60FEF768FC386108E07B
:102D7C00FEF764FC02463B69D31A022B01D90323EC
:102D8C0080E11D4B1B6803F00203002BF0D17B6824
:102D9C001B6803F00803002B3AD07B689B69002B5F
:102DAC0019D0174B01221A60FEF748FC386108E075
:102DBC00FEF744FC02463B69D31A022B01D90323CC
:102DCC0060E10D4B5B6A03F00203002BF0D0012095
:102DDC0000F0CEFA1CE00A4B00221A60FEF72EFC23
:102DEC0038610FE0FEF72AFC02463B69D31A022B2E
:102DFC0008D9032346E100BF001002400000424204
:102E0C0080044242924B5B6A03F00203002BE9D12F
:102E1C007B681B6803F00403002B00F0A6800023E2
:102E2C00FB758B4BDB6903F08053002B0DD1884B6A
:102E3C00DB69874A43F08053D361854BDB6903F030
:102E4C008053BB60BB680123FB75824B1B6803F48A
:102E5C008073002B18D17F4B1B687E4A43F4807320
:102E6C001360FEF7EBFB386108E0FEF7E7FB024668
:102E7C003B69D31A642B01D9032303E1754B1B68FF
:102E8C0003F48073002BF0D07B68DB68012B06D138
:102E9C006F4B1B6A6E4A43F0010313622DE07B6893
:102EAC00DB68002B0CD16A4B1B6A694A23F00103C7
:102EBC001362674B1B6A664A23F0040313621CE01F
:102ECC007B68DB68052B0CD1614B1B6A604A43F0B5
:102EDC00040313625E4B1B6A5D4A43F001031362E9
:102EEC000BE05B4B1B6A5A4A23F001031362584BED
:102EFC001B6A574A23F0040313627B68DB68002BC0
:102F0C0015D0FEF79BFB38610AE0FEF797FB0246F3
:102F1C003B69D31A41F28832934201D90323B1E0C1
:102F2C004B4B1B6A03F00203002BEED014E0FEF7B0
:102F3C0085FB38610AE0FEF781FB02463B69D31A38
:102F4C0041F28832934201D903239BE0404B1B6A28
:102F5C0003F00203002BEED1FB7D012B05D13C4B82
:102F6C00DB693B4A23F08053D3617B68DB69002B20
:102F7C0000F08780364B5B6803F00C03082B61D0A4
:102F8C007B68DB69022B46D1334B00221A60FEF7BB
:102F9C0055FB386108E0FEF751FB02463B69D31A3A
:102FAC00022B01D903236DE0294B1B6803F000733E
:102FBC00002BF0D17B681B6AB3F5803F08D1244B02
:102FCC005B6823F400327B689B68214913434B6098
:102FDC001F4B5B6823F474127B68196A7B685B6A0D
:102FEC000B431B4913434B601B4B01221A60FEF72A
:102FFC0025FB386108E0FEF721FB02463B69D31A3A
:10300C00022B01D903233DE0114B1B6803F0007325
:10301C00002BF0D035E0104B00221A60FEF70EFBAF
:10302C00386108E0FEF70AFB02463B69D31A022B13
:10303C0001D9032326E0064B1B6803F00073002B19
:10304C00F0D11EE07B68DB69012B07D1012319E06D
:10305C000010024000700040600042420B4B5B6865
:10306C00FB60FB6803F480327B681B6A9A4206D1D2
:10307C00FB6803F470127B685B6A9A4201D00123EF
:10308C0000E0002318461837BD4680BD00100240F2
:10309C0080B584B000AF786039607B68002B01D1BB
:1030AC000123D0E06A4B1B6803F007033A689A428D
:1030BC0010D9674B1B6823F0070265493B68134323
:1030CC000B60634B1B6803F007033A689A4201D00C
:1030DC000123B8E07B681B6803F00203002B20D0AF
:1030EC007B681B6803F00403002B05D0594B5B680D
:1030FC00584A43F4E06353607B681B6803F0080391
:10310C00002B05D0534B5B68524A43F46053536019
:10311C00504B5B6823F0F0027B689B684D4913436E
:10312C004B607B681B6803F00103002B40D07B686D
:10313C005B68012B07D1474B1B6803F40033002B52
:10314C0015D101237FE07B685B68022B07D1414BD3
:10315C001B6803F00073002B09D1012373E03D4B76
:10316C001B6803F00203002B01D101236BE0394BE8
:10317C005B6823F003027B685B68364913434B6042
:10318C00FEF75CFAF8600AE0FEF758FA0246FB68B4
:10319C00D31A41F28832934201D9032353E02D4BC9
:1031AC005B6803F00C027B685B689B009A42EBD176
:1031BC00274B1B6803F007033A689A4210D2244B42
:1031CC001B6823F0070222493B6813430B60204B1A
:1031DC001B6803F007033A689A4201D0012332E0DE
:1031EC007B681B6803F00403002B08D0194B5B6849
:1031FC0023F4E0627B68DB68164913434B607B6801
:10320C001B6803F00803002B09D0124B5B6823F4F6
:10321C0060527B681B69DB000E4913434B6000F066
:10322C0021F802460B4B5B681B0903F00F030A499C
:10323C00CB5C22FA03F3094A1360094B1B6818464E
:10324C00FEF7BAF9002318461037BD4680BD00BF03
:10325C000020024000100240584800082C000020BA
:10326C003000002080B487B000AF0023FB60002347
:10327C00BB6000237B6100237B6000233B611E4B02
:10328C005B68FB60FB6803F00C03042B02D0082B7B
:10329C0003D027E0194B3B6127E0FB689B0C03F044
:1032AC000F03174AD35C7B60FB6803F48033002B5D
:1032BC0010D0114B5B685B0C03F00103114AD35C1B
:1032CC00BB607B680D4A03FB02F2BB68B2FBF3F3F5
:1032DC007B6104E07B680C4A02FB03F37B617B6936
:1032EC003B6102E0054B3B6100BF3B6918461C3754
:1032FC00BD4680BC704700BF0010024000127A002F
:10330C00704800088048000800093D0080B400AFF8
:10331C00024B1B681846BD4680BC70472C00002031
:10332C0080B500AFFFF7F2FF0246054B5B681B0A46
:10333C0003F007030349CB5C22FA03F3184680BD64
:10334C00001002406848000880B500AFFFF7DEFFB0
:10335C000246054B5B68DB0A03F007030349CB5CB1
:10336C0022FA03F3184680BD00100240684800089A
:10337C0080B485B000AF78600A4B1B680A4AA2FB88
:10338C0003235B0A7A6802FB03F3FB6000BFFB6854
:10339C005A1EFA60002BF9D100BF00BF1437BD468E
:1033AC0080BC70472C000020D34D621080B586B0D5
:1033BC0000AF786000233B610023FB607B681B68D7
:1033CC0003F00103002B7DD00023FB754F4BDB6911
:1033DC0003F08053002B0DD14C4BDB694B4A43F06F
:1033EC008053D361494BDB6903F08053BB60BB68EE
:1033FC000123FB75464B1B6803F48073002B18D11B
:10340C00434B1B68424A43F480731360FEF716F972
:10341C00386108E0FEF712F902463B69D31A642BB7
:10342C0001D903236DE03A4B1B6803F48073002B26
:10343C00F0D0364B1B6A03F44073FB60FB68002B27
:10344C002ED07B685B6803F44073FA689A4227D0ED
:10345C002E4B1B6A23F44073FB602E4B01221A6027
:10346C002C4B00221A60294AFB681362FB6803F09C
:10347C000103002B14D0FEF7E1F838610AE0FEF7E7
:10348C00DDF802463B69D31A41F28832934201D9E6
:10349C00032336E01D4B1B6A03F00203002BEED016
:1034AC001A4B1B6A23F440727B685B681749134301
:1034BC000B62FB7D012B05D1144BDB69134A23F006
:1034CC008053D3617B681B6803F00203002B08D088
:1034DC000E4B5B6823F440427B689B680B4913439B
:1034EC004B607B681B6803F01003002B08D0074B64
:1034FC005B6823F480027B68DB68044913434B60F0
:10350C00002318461837BD4680BD00BF001002408E
:10351C00007000404004424280B582B000AF786039
:10352C007B68002B01D1012341E07B6893F83D308F
:10353C00DBB2002B06D17B68002283F83C20786834
:10354C00FDF71CFF7B68022283F83D207B681A681C
:10355C007B6804331946104600F05CFA7B68012244
:10356C0083F846207B68012283F83E207B68012289
:10357C0083F83F207B68012283F840207B6801227E
:10358C0083F841207B68012283F842207B6801226A
:10359C0083F843207B68012283F844207B68012256
:1035AC0083F845207B68012283F83D2000231846D0
:1035BC000837BD4680BD000080B485B000AF786090
:1035CC007B6893F83D30DBB2012B01D001233AE04C
:1035DC007B68022283F83D207B681B68DA687B6875
:1035EC001B6842F00102DA607B681B68184A934240
:1035FC000ED07B681B68B3F1804F09D07B681B68C9
:10360C00144A934204D07B681B68134A934211D12D
:10361C007B681B689B6803F00703FB60FB68062B49
:10362C0010D07B681B681A687B681B6842F001022B
:10363C001A6007E07B681B681A687B681B6842F09D
:10364C0001021A60002318461437BD4680BC70472F
:10365C00002C0140000400400008004080B584B0FC
:10366C0000AF78607B681B68DB68FB607B681B685D
:10367C001B69BB60BB6803F00203002B20D0FB6806
:10368C0003F00203002B1BD07B681B686FF0020257
:10369C001A617B6801221A777B681B689B6903F0AF
:1036AC000303002B03D0786800F098F905E07868E4
:1036BC0000F08BF9786800F09AF97B6800221A7791
:1036CC00BB6803F00403002B20D0FB6803F0040359
:1036DC00002B1BD07B681B686FF004021A617B689F
:1036EC0002221A777B681B689B6903F44073002BDA
:1036FC0003D0786800F072F905E0786800F065F99D
:10370C00786800F074F97B6800221A77BB6803F0C4
:10371C000803002B20D0FB6803F00803002B1BD000
:10372C007B681B686FF008021A617B6804221A77A9
:10373C007B681B68DB6903F00303002B03D07868FC
:10374C0000F04CF905E0786800F03FF9786800F07B
:10375C004EF97B6800221A77BB6803F01003002B2C
:10376C0020D0FB6803F01003002B1BD07B681B6878
:10377C006FF010021A617B6808221A777B681B684D
:10378C00DB6903F44073002B03D0786800F026F952
:10379C0005E0786800F019F9786800F028F97B6882
:1037AC0000221A77BB6803F00103002B0CD0FB68D6
:1037BC0003F00103002B07D07B681B686FF001023C
:1037CC001A617868FDF78FF9BB6803F08003002B52
:1037DC000CD0FB6803F08003002B07D07B681B68C0
:1037EC006FF080021A61786800F07FFABB6803F012
:1037FC004003002B0CD0FB6803F04003002B07D0D8
:10380C007B681B686FF040021A61786800F0F8F86A
:10381C00BB6803F02003002B0CD0FB6803F02003E3
:10382C00002B07D07B681B686FF020021A61786848
:10383C0000F052FA00BF1037BD4680BD80B584B091
:10384C0000AF786039600023FB737B6893F83C30E1
:10385C00012B01D10223B4E07B68012283F83C20C8
:10386C007B68022283F83D207B681B689B68BB60E9
:10387C00BB6823F07703BB60BB6823F47F43BB605A
:10388C007B681B68BA689A603B681B68B3F5005F7D
:10389C003ED0B3F5005F00F28780B3F5805F00F097
:1038AC008680B3F5805F7FD8702B1AD0702B7BD8B5
:1038BC00602B50D0602B77D8502B3CD0502B73D82A
:1038CC00402B58D0402B6FD8302B64D0302B6BD87A
:1038DC00202B60D0202B67D8002B5CD0102B5AD01B
:1038EC0062E07B6818683B6899683B685A683B687B
:1038FC00DB6800F074F97B681B689B68BB60BB6875
:10390C0043F07703BB607B681B68BA689A604FE032
:10391C007B6818683B6899683B685A683B68DB6849
:10392C0000F05DF97B681B689A687B681B6842F441
:10393C0080429A603CE07B6818683B6859683B6839
:10394C00DB681A4600F0D4F87B681B6850211846D7
:10395C0000F02BF92CE07B6818683B6859683B68D1
:10396C00DB681A4600F0F2F87B681B686021184689
:10397C0000F01BF91CE07B6818683B6859683B68D1
:10398C00DB681A4600F0B4F87B681B6840211846C7
:10399C0000F00BF90CE07B681A683B681B68194651
:1039AC00104600F002F903E00123FB7300E000BFB6
:1039BC007B68012283F83D207B68002283F83C2041
:1039CC00FB7B18461037BD4680BD80B483B000AF7A
:1039DC00786000BF0C37BD4680BC704780B483B0A4
:1039EC0000AF786000BF0C37BD4680BC704780B418
:1039FC0083B000AF786000BF0C37BD4680BC704709
:103A0C0080B483B000AF786000BF0C37BD4680BC7B
:103A1C007047000080B485B000AF786039607B6877
:103A2C001B68FB607B682F4A93420BD07B68B3F119
:103A3C00804F07D07B682C4A934203D07B682B4A7B
:103A4C00934208D1FB6823F07003FB603B685B6812
:103A5C00FA681343FB607B68224A93420BD07B6865
:103A6C00B3F1804F07D07B681F4A934203D07B6829
:103A7C001E4A934208D1FB6823F44073FB603B68F9
:103A8C00DB68FA681343FB60FB6823F080023B6839
:103A9C005B691343FB607B68FA681A603B689A6841
:103AAC007B68DA623B681A687B689A627B680D4AAD
:103ABC00934203D13B681A697B681A637B680122C5
:103ACC005A617B681B6903F00103002B05D07B68EE
:103ADC001B6923F001027B681A6100BF1437BD46D5
:103AEC0080BC7047002C01400004004000080040DE
:103AFC0080B487B000AFF860B9607A60FB681B6A6D
:103B0C007B61FB681B6A23F00102FB681A62FB688D
:103B1C009B693B613B6923F0F0033B617B681B01B4
:103B2C003A6913433B617B6923F00A037B617A6931
:103B3C00BB6813437B61FB683A699A61FB687A69DD
:103B4C001A6200BF1C37BD4680BC704780B487B07A
:103B5C0000AFF860B9607A60FB681B6A7B61FB6838
:103B6C001B6A23F01002FB681A62FB689B693B61BD
:103B7C003B6923F470433B617B681B033A69134335
:103B8C003B617B6923F0A0037B61BB681B017A69F5
:103B9C0013437B61FB683A699A61FB687A691A6224
:103BAC0000BF1C37BD4680BC704780B485B000AFE9
:103BBC00786039607B689B68FB60FB6823F070035E
:103BCC00FB603A68FB68134343F00703FB607B68B8
:103BDC00FA689A6000BF1437BD4680BC704780B449
:103BEC0087B000AFF860B9607A603B60FB689B6897
:103BFC007B617B6923F47F437B613B681A027B68A2
:103C0C001A43BB6813437A6913437B61FB687A6977
:103C1C009A6000BF1C37BD4680BC704780B485B02D
:103C2C0000AF786039607B6893F83C30012B01D190
:103C3C00022346E07B68012283F83C207B68022249
:103C4C0083F83D207B681B685B68FB607B681B68A6
:103C5C009B68BB60FB6823F07003FB603B681B68D0
:103C6C00FA681343FB607B681B68FA685A607B68D0
:103C7C001B68164A93420ED07B681B68B3F1804FC9
:103C8C0009D07B681B68124A934204D07B681B687E
:103C9C00104A93420CD1BB6823F08003BB603B6895
:103CAC005B68BA681343BB607B681B68BA689A6030
:103CBC007B68012283F83D207B68002283F83C203E
:103CCC00002318461437BD4680BC7047002C0140B9
:103CDC00000400400008004080B483B000AF78605E
:103CEC0000BF0C37BD4680BC704780B483B000AFBA
:103CFC00786000BF0C37BD4680BC704780B582B081
:103D0C0000AF78607B68002B01D1012342E07B6817
:103D1C0093F84130DBB2002B06D17B68002283F88C
:103D2C0040207868FDF74EFB7B68242283F8412005
:103D3C007B681B68DA687B681B6822F40052DA60C7
:103D4C00786800F02BF87B681B681A697B681B6825
:103D5C0022F490421A617B681B685A697B681B6865
:103D6C0022F02A025A617B681B68DA687B681B6840
:103D7C0042F40052DA607B6800225A647B6820228D
:103D8C0083F841207B68202283F842207B68002244
:103D9C005A63002318460837BD4680BD80B584B0F1
:103DAC0000AF78607B681B681B6923F440517B680B
:103DBC00DA687B681B680A431A617B689A687B68BF
:103DCC001B691A437B685B691343BB607B681B6888
:103DDC00DB6823F4B05323F00C037A681268B968DB
:103DEC000B43D3607B681B685B6923F440717B6871
:103DFC009A697B681B680A435A617B681B682C4A6A
:103E0C00934203D1FFF7A0FAF86002E0FFF788FABB
:103E1C00F860FA6813469B0013449A001A447B68B6
:103E2C005B689B00B2FBF3F3224AA2FB03235B0902
:103E3C001901FA6813469B0013449A001A447B68D4
:103E4C005B689B00B2FBF3F21A4BA3FB02035B090A
:103E5C00642000FB03F3D31A1B013233154AA2FB77
:103E6C0003235B0903F0F0031944FA6813469B0023
:103E7C0013449A001A447B685B689B00B2FBF3F214
:103E8C000C4BA3FB02035B09642000FB03F3D31A66
:103E9C001B013233074AA2FB03235B0903F00F0219
:103EAC007B681B680A449A6000BF1037BD4680BD12
:103EBC00003801401F85EB51014B1868704700BF5B
:103ECC003800002070B500260C4D0D4C641BA4105E
:103EDC00A64209D100F09CFC00260A4D0A4C641B3A
:103EEC00A410A64205D170BD55F8043B9847013685
:103EFC00EEE755F8043B98470136F2E7B84800085E
:103F0C00B8480008B8480008BC48000803460244FA
:103F1C00934200D1704703F8011BF9E70EB46FF020
:103F2C00004100B59CB01DAB029006900791049126
:103F3C000848094953F8042B0591006802A901931C
:103F4C0000F068F80022029B1A701CB05DF804EBBC
:103F5C0003B07047380000200802FFFF2DE9F0473E
:103F6C008E6882469E420C4690461F4638D88A89F7
:103F7C0012F4906F32D0256809690133A5EB010961
:103F8C0065694B4405EB450505EBD5756D109D42F8
:103F9C0038BF1D46530531D5294600F06FFB064648
:103FAC0050B90C234FF0FF30CAF80030A38943F00E
:103FBC004003A381BDE8F0874A46216900F0CEFAA0
:103FCC00A38923F4906343F08003A38126614E44BC
:103FDC0026603E466561A5EB0905A560BE4200D989
:103FEC003E4632464146206800F0C6FAA3680020DF
:103FFC009B1BA360236833442360DBE72A4600F055
:10400C00B1FB06460028E1D15046216900F0CEFAFA
:10401C00C7E700002DE9F04F98468B8907461B0631
:10402C000D4614469DB00ED50B6963B9402100F0C6
:10403C0025FB2860286120B90C233B604FF0FF3032
:10404C00D1E040236B610023099320238DF82930A4
:10405C0030234FF00109CDF80C80DFF8A4818DF8E6
:10406C002A3023469A4613F8012B0AB1252AF9D196
:10407C00BAEB040B0BD05B46224629463846FFF7B9
:10408C006DFF013000F0AA80099A5A4409929AF8FF
:10409C000030002B00F0A28000234FF0FF32CDE95E
:1040AC0005230AF1010A049307938DF853301A93F0
:1040BC005446052214F8011B514800F041FA049AA9
:1040CC00D8B9D00644BF20238DF85330110744BF14
:1040DC002B238DF853309AF800302A2B15D05446E8
:1040EC0000204FF00A0C079A214611F8013B303B97
:1040FC00092B4ED9B0B1079214E0A0EB080309FAD2
:10410C0003F31343A2460493D2E7039B191D1B68C8
:10411C000391002BBBBF5B4242F002020793079353
:10412C00B8BF049223782E2B0CD163782A2B35D16F
:10413C00039B02341A1D1B680392002BB8BF4FF06F
:10414C00FF330593DFF8BCA003225046217800F022
:10415C00F7F940B14023A0EB0A0003FA00F0049BEE
:10416C0001340343049314F8011B062226488DF8EE
:10417C00281000F0E5F9002838D0244B1BBB039B1A
:10418C00073323F0070308330393099B3344099344
:10419C0067E70C4601200CFB0232A5E700234FF029
:1041AC000A0C194601340593204610F8012B303ABD
:1041BC00092A03D9002BC5D00591C3E70446012376
:1041CC000CFB0121F0E703AB00932A463846104B59
:1041DC0004A9AFF30080421C0646D6D1AB895B061E
:1041EC003FF52CAF09981DB0BDE8F08F03AB0093E1
:1041FC002A463846064B04A900F07CF8EBE700BFD2
:10420C0082480008884800088C480008000000001C
:10421C00693F00082DE9F047164699468A680B69F4
:10422C0007469342B8BF1346336091F843200C46BF
:10423C00DDF820800AB1013333602368990642BF50
:10424C00336802333360256815F0060506D104F196
:10425C00190AE36832689B1AAB4228DC94F84320B5
:10426C00131E226818BF012392062DD449463846E6
:10427C0004F14302C047013020D02368E56803F005
:10428C000603042B18BF002532684FF00006A36804
:10429C0008BFAD1A226908BF25EAE5759342C4BF71
:1042AC009B1AED181A34B5421AD1002008E00123EC
:1042BC00524649463846C047013003D14FF0FF30D3
:1042CC00BDE8F0870135C4E73020E11881F84300E0
:1042DC005A1C94F845102244023382F84310C5E767
:1042EC000123224649463846C0470130E6D0013604
:1042FC00D9E700002DE9FF470F7E9146782F8046C5
:10430C000C469A460C9D01F1430207D8622F0AD83D
:10431C00002F00F0D980582F00F0A48004F1420542
:10432C0084F842703AE0A7F16303152BF6D801A18B
:10433C0051F823F099430008AD43000829430008C5
:10434C00294300082943000829430008AD4300080D
:10435C002943000829430008294300082943000881
:10436C00BB440008DD4300089D44000829430008B5
:10437C0029430008DD44000829430008DD430008F8
:10438C002943000829430008A54400082B681A1D7E
:10439C001B682A6004F1420584F842300123A4E032
:1043AC0020682968060601F104030AD50E682B6003
:1043BC00002E03DA2D23764284F843300A235E481C
:1043CC0019E00E6810F0400F2B6018BF36B2EFE703
:1043DC002B682068191D2960010601D51E6802E0B2
:1043EC004606FBD51E886F2F0CBF08230A235248A4
:1043FC00002184F843106568002DA8BF2168A560D2
:10440C00A4BF21F0040121600EB9002D4DD015463A
:10441C00B6FBF3F103FB1167C75D05F8017D374669
:10442C00BB420E46F4D9082B0BD12368DE0708D506
:10443C00236961689942DEBF302305F8013C05F120
:10444C00FF35521B22614B4621464046CDF800A059
:10445C0003AAFFF7DFFE01304CD14FF0FF3004B060
:10446C00BDE8F087344881F845702968236851F815
:10447C00046B29601D0614D5DF0744BF43F02003ED
:10448C0023601EB9236823F0200323601023AFE7B9
:10449C00236843F0200323607823284884F84530B0
:1044AC00E3E7590648BFB6B2E6E71546BBE72B680B
:1044BC002668181D6169286035061B6801D51960CE
:1044CC0002E07006FBD51980002315462361BAE77C
:1044DC002B6800211A1D2A601D686268284600F0AE
:1044EC002FF808B1401B606063682361002384F8D7
:1044FC004330A8E72A46494640462369D047013055
:10450C00ABD023689B0713D4E068039B9842B8BFD9
:10451C001846A4E70123324649464046D0470130AD
:10452C009BD00135E36803995B1AAB42F2DCEBE7F5
:10453C00002504F11906F5E793480008A448000883
:10454C00034610B5C9B202449342184601D100206B
:10455C0003E0047801338C42F6D110BD0A44914239
:10456C0000F1FF3300D1704710B511F8014B9142A7
:10457C0003F8014FF9D110BD884210B501EB0204CC
:10458C0002D98442234607D8431EA14208D011F811
:10459C00012B03F8012FF8E7014602448A4200D1AF
:1045AC0010BD13F8014D02F8014DF7E738B505467B
:1045BC00002940D051F8043C0C1F002BB8BFE41864
:1045CC0000F010F91C4A136833B963601460284674
:1045DC00BDE8384000F00CB9A34208D92068211876
:1045EC008B4201BF19685B6809182160EDE71A4618
:1045FC005B680BB1A342FAD911685018A0420BD1D9
:10460C0020680144501883421160E0D118685B683F
:10461C00014411605360DAE702D90C232B60D6E712
:10462C00206821188B4201BF19685B68091821604A
:10463C0063605460CBE738BD5005002070B50E4E5A
:10464C000C463168054611B900F0BCF830602146C3
:10465C00284600F0B7F8431C0AD0C41C24F003040D
:10466C00A04207D0211A284600F0ACF8013001D145
:10467C004FF0FF34204670BD540500202DE9F04169
:10468C00CD1C25F0030508350C2D38BF0C25002D4D
:10469C00074601DBA94205D90C2300263B603046B6
:1046AC00BDE8F0812E4E00F09DF833681C4634BBFB
:1046BC0029463846FFF7C2FF431C04464DD13468E7
:1046CC002646002E40D123683146384604EB0308B9
:1046DC0000F078F880453AD1216803356D1A25F041
:1046EC00030508350C2D38BF0C2538462946FFF735
:1046FC00A5FF01302BD023682B4423600EE02268E9
:10470C00521B1ED40B2A16D96119A342256018BF5F
:10471C005960636808BF316062514B60384604F1E0
:10472C000B0600F065F826F00706231DF21AB6D02A
:10473C009B1BA350B3E76268A3420CBF32605A6064
:10474C00ECE723466468B2E734467668B9E70C2395
:10475C0038463B6000F04CF8A1E72560DEE700BF6F
:10476C00500500202DE9F041804614460E4621B933
:10477C001146BDE8F041FFF781BF2AB9FFF716FFDC
:10478C0025462846BDE8F08100F038F884420746FB
:10479C0002D8B4EB500F12D821464046FFF76EFFFB
:1047AC0005460028EDD0BC422246314628BF3A4689
:1047BC00FFF7D4FE31464046FFF7F8FEE1E73546F9
:1047CC00DFE7000038B50023054D044608462B6092
:1047DC00FCF77AFE431C02D12B6803B1236038BD71
:1047EC0058050020014800F011B800BF5C050020FE
:1047FC00014800F00CB800BF5C05002051F8043CE7
:10480C00181F002BBCBF0B58C0187047704770475F
:10481C00F8B500BFF8BC08BC9E467047F8B500BFA1
:08482C00F8BC08BC9E46704771
:104834006D6F64653A00000074696D65313A00007B
:1048440074696D65323A0000010002000400000141
:1048540025640000000000000000000001020304C1
:10486400060708090000000001020304020304050E
:10487400060708090A0B0C0D0E0F10100102232D58
:10488400302B2000686C4C00656667454647003055
:1048940031323334353637383941424344454600A2
:1048A40030313233343536373839616263646566A2
:0448B4000000000000
:0448B80031010008C2
:0448BC000D010008E2
:1048C00001000000010000000500000003000000DE
:1048D00005000000050000000300000005000000C6
:1048E00005000000030000000500000000127A002F
:1048F00010000000010000003C000020000000004B
:1049000000000000000000000000000000000000A7
:104910000000000000000000000000000000000097
:104920000000000000000000000000000000000087
:104930000000000000000000000000000000000077
:104940000000000000000000000000000000000067
:0C4950000000000000000000000000005B
:040000050800154D8D
:00000001FF
